:020000040800F2
:100000002005002001010008090100080B0100087B
:100010000D0100080F010008110100080000000098
:1000200000000000000000000000000013010008B4
:100030001501000800000000170100081901000860
:100040001B0100081B0100081B0100081B01000820
:100050001B0100081B0100081B0100081B01000810
:100060001B0100081B0100081B0100081B01000800
:100070001B0100081B0100081B0100081B010008F0
:100080001B0100081B010008970D00081B01000858
:100090001B0100081B0100081B0100081B010008D0
:1000A0001B010008230C00081B0100081B010008AD
:1000B0001B0100081B0100081B0100081B010008B0
:1000C0001B0100081B0100081B0100081B010008A0
:1000D0001B010008850400081B0100081B01000823
:1000E0001B0100081B0100081B010008DFF80CD0F1
:1000F00003F0F0F800480047110500082005002033
:100100000648804706480047FEE7FEE7FEE7FEE7B1
:10011000FEE7FEE7FEE7FEE7FEE7FEE70102000876
:10012000ED0000080CB50020019000906B480068BD
:1001300040F480306949086000BF6848006800F4F6
:10014000003000900198401C0190009818B9019867
:10015000B0F5A06FF1D16148006810F4003F02D003
:100160000120009001E0002000900098012842D179
:100170005B48006840F01000594908600846006874
:1001800020F0030008600846006840F002000860A4
:1001900052484068514948600846406848600846EF
:1001A000406840F4806048600846406820F47C1055
:1001B00048600846406840F4E81048600846006817
:1001C00040F08070086000BF4448006810F0007F75
:1001D000FAD04248406820F0030040494860084691
:1001E000406840F00200486000BF3C48406800F0B2
:1001F0000C000828F9D10CBD10B5FFF793FF10BD16
:1002000010B53648006840F00100344908600846DF
:10021000406834490840314948600846006832491E
:1002200008402E4908600846006820F480200860D5
:100230000846406820F4FE0048604FF41F008860C4
:10024000FFF7DAFF4FF000602849086010BD10B5D5
:10025000002100200022214B5B6803F00C0121B13A
:10026000042906D0082928D107E0214B214C23601E
:1002700027E01F4B1F4C236023E0184B5B6803F4FF
:100280007010164B5B6803F48032022303EB90403E
:1002900022B9194B4343174C23600DE00F4B5B68A9
:1002A00013F4003F04D0144B4343124C236003E08B
:1002B0000F4B43430F4C236003E00D4B0D4C236069
:1002C00000BF00BF054B5B68C3F303130B4CE15C3D
:1002D000084B1B68CB40074C236010BD0010024048
:1002E000002002400000FFF8FFFFF6FE08ED00E0EE
:1002F00000127A000000002000093D0004000020E8
:1003000010B56FF0040000F0BDFE2D4800682D49C7
:10031000B0FBF1F02C4908700846007800EB400172
:10032000C1EBC0104FF6FF7101EAC00027490880F9
:1003300010BD0146244A12784A434FF0E0235A6127
:1003400000229A611A46126942F001021A6100BF46
:100350004FF0E022106910F0010F02D010F4803F3E
:10036000F6D04FF0E022126922F001024FF0E023B4
:100370001A6100229A6170470146144A12884A4362
:100380004FF0E0235A6100229A611A46126942F046
:1003900001021A6100BF4FF0E022106910F0010F56
:1003A00002D010F4803FF6D04FF0E022126922F024
:1003B00001024FF0E0231A6100229A6170470000A9
:1003C0000000002000127A00140000201600002017
:1003D000014600BF704700BF494A128812F0400F23
:1003E000FAD0C2B2464B1B1D1A80704710B586B0BA
:1003F0000446012144F2040001F068FC4FF400704F
:10040000ADF8140003208DF8160018208DF81700A1
:1004100005A93C4801F03EF94FF48060ADF81400A6
:1004200004208DF8170005A9364801F033F925207E
:100430008DF8000003208DF801008DF802000120E6
:100440008DF80300684600F0D2FD01940020ADF85D
:100450000800ADF80A00ADF80C00ADF810000C2053
:10046000ADF80E0001A9264802F0E9FB012240F296
:100470002551234802F07BFC0121214802F06BFC4E
:1004800006B010BD10B540F225511D4802F054FDD4
:1004900010B31B4802F0D0FCC4B21B48008810F413
:1004A000004F2BD11848008810F4804F0CD00A2C34
:1004B00003D000201449088020E01348008840F44D
:1004C00000401149088019E00D2C06D10E48008823
:1004D00040F480400C49088010E00B480088C0F3CD
:1004E0000D000A490C5408480088401C0649088041
:1004F00008460088C72801DD0020088010BD0000E4
:10050000003801400008014018000020540000207D
:1005100000F0A4F90FE00848006840F2FA51884260
:1005200007DD05480068B0F5C86F02DA00F07AF818
:1005300001E000F0D3F8EEE73800002010B50446E3
:100540004FF40071634801F050F94FF48071614835
:1005500001F04DF910215F4801F047F920215D4875
:1005600001F045F9A1B25C4802F0E2FAA1B25A48A2
:1005700002F0DCFA10BD10B504464FF40071554886
:1005800001F035F94FF48071524801F02EF9102135
:10059000504801F02CF920214E4801F026F9A1B273
:1005A0004D4802F0C5FAA1B24B4802F0BFFA10BDA7
:1005B00010B504464FF40071464801F018F94FF4A5
:1005C0008071444801F013F91021424801F00DF9FF
:1005D0002021404801F00BF900213F4802F0A8FA21
:1005E000A1B23D4802F0A2FA10BD10B504464FF486
:1005F0000071384801F0F9F84FF48071354801F086
:10060000F6F81021334801F0F2F82021314801F0CA
:10061000EEF8A1B2304802F08BFA00212E4802F029
:1006200085FA10BD10B54FF400712A4801F0DFF8CB
:100630004FF48071274801F0DAF81021254801F0C5
:10064000D6F82021234801F0D2F80021224802F0F8
:100650006FFA0021204802F069FA10BD70B5044617
:100660000D464FF400711B4801F0C1F84FF4807142
:10067000184801F0BAF81021164801F0B6F8202108
:10068000144801F0B4F8A1B2134802F051FAA9B22B
:10069000114802F04BFA70BD70B504460D464FF498
:1006A00000710C4801F0A1F84FF48071094801F085
:1006B0009EF81021074801F09AF82021054801F022
:1006C00094F8A1B2044802F033FAA9B2024802F049
:1006D0002DFA70BD000C0140000800401FB501203C
:1006E00003900290019000906B4601AA02A903A812
:1006F00000F0BEFA039808B10298D0B90098C0B9CA
:100700005448006840F2DC51884205DB51480068DB
:1007100040F2A46188420CDD4FF461610846FFF7A6
:10072000BBFF4FF48570FFF727FE01204A490860A0
:100730008FE00398E0B9019808B10098C0B9454826
:10074000006840F2DC51884205DB4248006840F214
:10075000A46188420CDD4FF461610846FFF77EFF1B
:100760004FF48570FFF708FE01203B49086070E0F8
:100770000398B8B93748006840F2DC51884205DB7D
:100780003448006840F2A46188420BDD40F6B8317D
:100790000846FFF763FF1420FFF7EEFD01202E4906
:1007A000086056E00098B8B92A48006840F2DC5169
:1007B000884205DB2748006840F2A46188420BDDCF
:1007C00040F6B8310846FFF767FF1420FFF7D4FD65
:1007D0000120214908603CE00298B0B90198012845
:1007E00013D11C48006840F2DC51884205DB1948EF
:1007F000006840F2A461884207DD40F6B830FFF798
:10080000D7FE00201449086023E00298012815D182
:10081000019898B90F48006840F2DC51884205DB26
:100820000C48006840F2A461884207DD40F6B83009
:10083000FFF7DBFE0020084908600AE0029840B993
:10084000019830B940F6B830FFF778FE0020024931
:1008500008601FBD380000202000002010B5FFF701
:100860004FFD00F011F800234FF4E15219461046F5
:1008700000F02EF900F0D9F800F01EFA00F031FA7D
:1008800000F074FA10BD000008B50121082001F045
:100890001DFA4FF44C70ADF8000010208DF80300E5
:1008A00003208DF802006946854800F0F3FE4FF4FE
:1008B0004C71834800F09BFF0121092001F006FAEA
:1008C0000121804800F0B5FF08BD08B5012001F006
:1008D00038F8002001F06AF9002000F024FE002022
:1008E00001F02FF80121042001F0F0F94FF400602D
:1008F000ADF8000010208DF8030002208DF80200F2
:100900006946714800F0C6FE0121082001F0DEF9B9
:100910004FF40050ADF8000010208DF803000220C5
:100920008DF802006946664800F0B4FE01210820F7
:1009300001F0CCF94FF48040ADF8000010208DF8A4
:10094000030002208DF8020069465D4800F0A2FE17
:100950000121082001F0BAF94FF40040ADF8000081
:1009600010208DF8030003208DF8020069465448DA
:1009700000F090FE0121042001F0A8F94FF48070EE
:10098000ADF8000010208DF8030003208DF8020060
:1009900069464D4800F07EFE0121042001F096F9E1
:1009A0000220ADF8000010208DF8030003208DF820
:1009B00002006946444800F06DFE08BD08B50121FB
:1009C000042001F083F94FF48050ADF800001020AE
:1009D0008DF8030003208DF8020069463A4800F0C4
:1009E00059FE0121042001F071F94FF40040ADF8E7
:1009F000000010208DF8030003208DF802006946E6
:100A0000314800F047FE0121082001F05FF908207D
:100A1000ADF8000010208DF8030003208DF80200CF
:100A20006946274800F036FE08BD08B501211020B0
:100A300001F04CF94FF48040ADF8000048208DF8EB
:100A4000030003208DF802006946204800F022FED2
:100A50000121102001F03AF94FF40050ADF80000E8
:100A600048208DF8030003208DF8020069461748DE
:100A700000F010FE0121102001F028F94FF4004091
:100A8000ADF8000048208DF8030003208DF8020027
:100A900069460E4800F0FEFD0121082001F016F91C
:100AA0004FF48050ADF8000048208DF8030003207B
:100AB0008DF802006946024800F0ECFD08BD000018
:100AC000000C01400002300000080140001001400D
:100AD000F0B589B007460C4615461E460121042094
:100AE00001F001F98020ADF8200018208DF82300D6
:100AF00003208DF8220008A9304800F0CBFDADF8A6
:100B00001870ADF814400020ADF81A00ADF81600CA
:100B100005A92B4801F016FA6020ADF80400012069
:100B2000ADF806000020ADF80C00ADF80A0001A9F0
:100B3000234801F086FA0821214801F098FE01219E
:100B40001F4801F05BFD0121042001F0CCF80121D8
:100B5000092001F0BBF84020ADF8200018208DF8E6
:100B6000230003208DF8220008A9144800F092FD0C
:100B7000ADF81850ADF814600020ADF81A00ADF8CB
:100B8000160005A90E4801F0DDF96020ADF804005B
:100B90000120ADF806000020ADF80C00ADF80A0009
:100BA00001A9074801F00BFA0821054801F056FE9B
:100BB0000121034801F022FD09B0F0BD000C014005
:100BC000000800407FB504460D460121C80201F02F
:100BD0007DF8ADF80840681E80B2ADF80400002032
:100BE000ADF80A00ADF8060001A91F4801F0AAF906
:100BF000012211461C4801F01CFD19208DF800004F
:100C000000208DF8010003208DF8020001208DF8EE
:100C10000300684600F0EBF90121134801F0EEFCF7
:100C20007FBD10B50121104801F0B1FFD0B1012105
:100C30000D4801F0BDFF00F0C9F90C4908600846F5
:100C4000006840F2A461884208DD0848006840F26C
:100C5000D661884202DAFFF7E5FC03E04FF46160F9
:100C6000FFF76CFC10BD0000002C014024000020A8
:100C70002DE9F04104460D4616461F464FF48041CB
:100C80000B4800F098FD20604FF40051084800F038
:100C900092FD28604FF40041054800F08CFD306063
:100CA0004FF48051034800F086FD3860BDE8F081C4
:100CB00000100140000C014008B501214FF4017003
:100CC00001F004F84FF4004000F067FF0120ADF898
:100CD000000000208DF8030069467A4800F0DAFC35
:100CE00008BD00B585B001214FF4017000F0EEFFA2
:100CF000754800F0E5F9002000908DF8040001200F
:100D00008DF805004FF46020029000200390012030
:100D10008DF8100069466C4800F0F9F907230122AC
:100D20001146694800F08BFA01224FF408716648B9
:100D300000F02FFA0121644800F015FA624800F033
:100D400034FA00BF604800F035FA0028FAD15E4856
:100D500000F03AFA00BF5C4800F03BFA0028FAD1F4
:100D60000121594800F03FFA05B000BD08B54FF425
:100D7000A06000F037F912208DF8000002208DF8F5
:100D8000010004208DF8020001208DF80300684660
:100D900000F02DF908BD70B54FF408714A4800F015
:100DA0009FFB012839D149480068494908604648F5
:100DB00000F0ACFA054602F0ABF9044602F0ADF9DA
:100DC0004249086043480068032812DA4248006834
:100DD00009680844404908603D4800683B49096883
:100DE000401A3E4908603B480068401C3949086089
:100DF0000EE000203749086037480068032190FB67
:100E0000F1F0374908600020334908603349086031
:100E10004FF408712C4800F075FB70BD10B5044606
:100E2000072301222146284800F009FA012126481B
:100E300000F0D9F900BF0221234800F045FB00284B
:100E4000F9D0214800F062FA10BD2DE9F0410746C3
:100E50000C460025002608E03846FFF7DFFF054472
:100E60000220FFF789FA701CC6B2A642F4DBB5FB7C
:100E7000F4F080B2BDE8F0812DE9F0470A210020AE
:100E8000FFF7E3FF8146484602F042F9824602F04E
:100E90005DF907464FF06632124B02F0C7F805467F
:100EA00002F067F904462046BDE8F08710B5FFF769
:100EB000E3FF04460C49204602F082F8044620462F
:100EC00010BD00000008014000240140280000205F
:100ED0003C0000202C0000203000002034000020C6
:100EE0003800002066664A3F91ED344000B587B077
:100EF00001214FF4017000F0E9FE4FF4004000F0D2
:100F00004CFE0220ADF8040000208DF8070001A976
:100F1000324800F0BFFB324800F0D2F800200290C7
:100F20008DF80C008DF80D004FF460200490002027
:100F3000059001208DF8180002A9294800F0E7F873
:100F40000121274800F00FF9254800F02EF900BFD5
:100F5000234800F02FF90028FAD1214800F034F995
:100F600000BF1F4800F035F90028FAD107B000BDD6
:100F700010B50446072301222146194800F05FF905
:100F80000121174800F02FF900BF0221144800F09A
:100F90009BFA0028F9D0124800F0B8F910BD2DE9ED
:100FA000F04107460C460025002608E03846FFF7CA
:100FB000DFFF05440120FFF7DFF9701CC6B2A6422F
:100FC000F4DBB5FBF4F080B2BDE8F08110B504218C
:100FD0000120FFF7E4FF0446204610BD0008014051
:100FE0000024014031490143314A1160704770B516
:100FF000002100230F22C4780CB32D4C246804F484
:10100000E064C4F5E064210AC1F10403CA404478F5
:1010100004FA03F18478144021430901254C067831
:10102000A155047804F01F050124AC4005786D112A
:101030004FF0E02606EB8505C5F8004109E004788D
:1010400004F01F050124AC401B4D0678761145F8CD
:10105000264070BD194A0A400243154B1B1F1A60F7
:10106000704739B1124A121D12680243104B1B1D02
:101070001A6006E00E4A121D126882430C4B1B1DBB
:101080001A607047042808D14FF0E021096941F047
:1010900004014FF0E022116107E04FF0E0210969FF
:1010A00021F004014FF0E022116170470000FA05C1
:1010B0000CED00E000E400E080E100E080FFFF1FB5
:1010C00010B50446FA48844208D10121401500F0C9
:1010D00017FE0021601500F013FE17E0F54884426A
:1010E00008D10121001500F00BFE0021201500F0B1
:1010F00007FE0BE0F048844208D10121C80300F04C
:10110000FFFD00214FF4004000F0FAFD10BD30B5A6
:101110000246002000235068E84C20400D790C68FE
:1011200044EA0524204350609068E54C2040D1E912
:1011300002542C434D7944EA450420439060D06A20
:1011400020F470000C7C641EE4B2234340EA035098
:10115000D06230BD00210160017141718160C160C8
:1011600001210174704721B1826842F0010282605E
:1011700003E0826822F001028260704721B1826838
:1011800042F48072826003E0826822F4807282609E
:10119000704710B50023CBB21AB144681C434460B9
:1011A00002E044689C43446010BD816841F008013E
:1011B00081607047014600208A6812F0080F01D054
:1011C000012000E000207047816841F00401816047
:1011D0007047014600208A6812F0040F01D00120F8
:1011E00000E00020704721B1826842F4A0028260D2
:1011F00003E0826822F4A00282607047014600206A
:101200008A6812F4800F01D0012000E000207047AE
:1012100010B50A4600210023416821F46041531EA5
:1012200041EA4331416010BD21B1426842F400629D
:10123000426003E0426822F4006242607047F0B509
:1012400004460D4600200021092D11DDE068A5F1BE
:101250000A0606EB4607072606FA07F18843A5F1BA
:101260000A0606EB460603FA06F10843E0600CE0C6
:10127000206905EB4507072606FA07F1884305EBC9
:10128000450603FA06F108432061072A0FDA606B6E
:10129000561E06EB86071F2606FA07F18843561EE0
:1012A00006EB860605FA06F10843606322E00D2A84
:1012B0000FDA206BD61F06EB86071F2606FA07F10A
:1012C0008843D61F06EB860605FA06F1084320631D
:1012D00010E0E06AA2F10D0606EB86071F2606FA6B
:1012E00007F18843A2F10D0606EB860605FA06F122
:1012F0000843E062F0BD21B1826842F4801282604E
:1013000003E0826822F48012826070470146C86C54
:1013100080B2704766484C300068704721B142681F
:1013200042F48062426003E0426822F480624260DC
:10133000704721B1426842F48052426003E0426843
:1013400022F48052426070470A460021816821F4ED
:10135000E04111438160704721B1826842F400424C
:10136000826003E0826822F400428260704721B10B
:10137000826842F40212826003E0826822F4021260
:1013800082607047014600208A6812F4001F01D075
:10139000012000E000207047F0B50446154600200B
:1013A00000220026092911DDE068A1F10A0707EBF8
:1013B000470C072707FA0CF29043A1F10A0707EB45
:1013C000470703FA07F21043E0600CE0206901EBE5
:1013D000410C072707FA0CF2904301EB410703FA8F
:1013E00007F210432061A06BC0F30156EF1C06F119
:1013F000010CA7EB0C0707EB870C1F2707FA0CF271
:101400009043EF1C06F1010CA7EB0C0707EB8707D5
:1014100001FA07F21043A063F0BD10B50A4600219F
:101420000023816B21F44011531E41EA0351816373
:1014300010BD08B5002300930090009B0B4400935F
:10144000009B1A6008BD08B502460020009000927B
:1014500001F12800009B184400900098006880B2B9
:1014600008BD0A4600214168164B194011434160EE
:1014700070474162826270470A460021416821F04C
:101480001F0111434160704740B1094908310968A3
:1014900041F40001064A0832116007E004490831AE
:1014A000096821F40001024A083211607047000007
:1014B0000024014000280140003C0140FFFEF0FFF5
:1014C000FDF7F1FFFFFD3FFF0246002013680B42CE
:1014D00001D0012000E000207047CA43026070473D
:1014E00070B502460020002300240B125568CEB2CE
:1014F00005EA060415681D4202D00CB1012000E087
:10150000002070BD00220A12D34303607047000020
:1015100010B5012000F00EFC002000F00BFC10BD07
:101520002A49086070472949091F08607047274900
:1015300084310860704701460020254A10884FF624
:101540007F4210400843224A108070470146002025
:101550001F4A10884FF68072104008431C4A1080C2
:10156000704708B500220092194A2C3A0092009A5E
:1015700002440092009A116008BD08B5014600209F
:10158000009013482C380090009808440090009870
:10159000008808BD0D489C300068C0B270470C48F8
:1015A0000830008840F00100094908310880704780
:1015B0000648A0300068C0B270470548083000886F
:1015C00040F00200024908310880704704860D424D
:1015D0002C6C004010B50446CA48844208D1012151
:1015E000042000F08DFB0021042000F089FB46E080
:1015F000C548844208D10121082000F081FB002168
:10160000082000F07DFB3AE0C048844208D1012167
:10161000102000F075FB0021102000F071FB2EE07F
:10162000BB48844208D10121202000F069FB002141
:10163000202000F065FB22E0B648844208D1012159
:10164000402000F05DFB0021402000F059FB16E037
:10165000B148844208D10121802000F051FB0021D3
:10166000802000F04DFB0AE0AC48844207D1012104
:10167000801500F045FB0021A01500F041FB10BDD6
:1016800010B50121084600F03BFB0021012000F0CD
:1016900037FB10BD2DE9F041024600250026002051
:1016A00000230024002791F803C00CF00F0591F8E7
:1016B00003C01CF0100F03D091F802C04CEA0505DE
:1016C00091F800C0BCF1000F31D0146800202BE06D
:1016D0004FF0010C0CFA00F3B1F800C00CEA03065D
:1016E0009E4220D183004FF00F0C0CFA03F7BC434D
:1016F00005FA03FC4CEA040491F803C0BCF1280F7E
:1017000006D14FF0010C0CFA00FCC2F814C00AE03C
:1017100091F803C0BCF1480F05D14FF0010C0CFA51
:1017200000FCC2F810C0401C0828D1D31460B1F8E6
:1017300000C0BCF1FF0F34DD546800202EE000F142
:10174000080C4FF0010808FA0CF3B1F800C00CEADD
:1017500003069E4221D183004FF00F0C0CFA03F7D1
:10176000BC4305FA03FC4CEA040491F803C0BCF145
:10177000280F05D100F1080C08FA0CF8C2F8148003
:1017800091F803C0BCF1480F07D100F1080C4FF0ED
:10179000010808FA0CF8C2F81080401C0828CED3C3
:1017A0005460BDE8F0814FF6FF7101800221817025
:1017B0000421C17070470246002093680B4201D09B
:1017C000012000E0002070470146886880B2704721
:1017D00002460020D3680B4201D0012000E0002027
:1017E00070470146C86880B2704701617047416127
:1017F00070470AB1016100E041617047C160704704
:101800004FF480320A438261816182618269826918
:10181000704702460020424B18684FF6807318400C
:1018200040EA021008433E4B186070473D49C861CA
:101830007047F0B50A46002300240021002500F07F
:101840000046B6F1004F02D1354EF16901E0344E49
:101850007168C0F3034583B200F44016B6F5401F2B
:1018600008D121F070612E4E766826F070662C4FFC
:101870007E6012E000F48016B6F5801F06D10326C4
:1018800006FA05F4A14341F0706106E0460D360109
:1018900003FA06F6B14341F0706122B1460D3601FC
:1018A00003FA06F6314300F00046B6F1004F02D1CC
:1018B0001B4EF16101E01A4E7160F0BD30B500229F
:1018C0008B071C0F0F2303FA04F2154B08338C10FF
:1018D00053F824309343124C08348D1044F82530CB
:1018E00023468C1053F824308C07240F00FA04F49C
:1018F00023430B4C08348D1044F8253030BD0A4981
:101900000860704700080140000C014000100140D1
:101910000014014000180140001C0140002001405B
:101920000000014000002042DC00204210B50121EF
:10193000080700F0F2F900214FF0805000F0EDF9B7
:1019400010BD294908627047274908617047014660
:101950000020264A106820F0E0000843106070471D
:1019600023490860704710B5024600201F4B1868D5
:1019700020F00300104318601E4B1B6843F0040363
:101980001C4C2360012901D130BF00E020BF194B5E
:101990001B6823F00403174C236010BD1348006834
:1019A00040F00400114908600846006840F0020059
:1019B00008601048006840F004000E49086000BF4D
:1019C00000BF30BF704701460020084A52680A42F3
:1019D00001D0012000E0002070470449096841EA75
:1019E0008001024A1160704700000E420070004002
:1019F000A0000E4210ED00E0DD48006840F001005C
:101A0000DB49086008464068DA490840D849486020
:101A100008460068D8490840D5490860084600686B
:101A200020F4802008600846406820F4FE004860EA
:101A30004FF41F0088607047CD49096821F4803158
:101A4000CB4A11601146096821F480211160B0F57C
:101A5000803F03D0B0F5802F0ED106E0C44909685D
:101A600041F48031C24A116007E0C149096841F47C
:101A7000A021BF4A116000E000BF00BF704710B551
:101A800001460022002300204A11012A02D1B84C4D
:101A9000236806E0022A02D1B54C236A01E0B44C67
:101AA000636A01F01F02012494401C4201D001200E
:101AB00000E0002010BD38B5002000900024002573
:101AC00000BF3120FFF7DBFF05460098401C009067
:101AD0000098B0F5A06F01D0002DF2D03120FFF7B3
:101AE000CEFF08B1012400E00024204638BD0146A5
:101AF00000209F4A106820F0F80040EAC100106002
:101B000070479E490860704702460020984B58680D
:101B100020F47C1042EA01031843954B586070474B
:101B200096490866704701460020914A506820F0A7
:101B300003000843506070478D48406800F00C0077
:101B40007047014600208A4A506820F0F0000843A0
:101B50005060704701460020854A506820F4E060DC
:101B600008435060704701460020814A506820F4C5
:101B7000605040EAC1005060704729B17C4A527AF7
:101B800002437B4B5A7204E0794A527A8243784B83
:101B90005A7270477A490860704701460020744ABB
:101BA000506820F440400843506070470021754A57
:101BB00011706F4A82F82010012802D0042808D141
:101BC00003E001216F4A117004E005216D4A117094
:101BD00000E000BF00BF70476B4908607047644970
:101BE000096A0143624A11627047674944390860D3
:101BF000704730B500210022002400235C4D6D6841
:101C000005F00C0121B1042905D0082923D105E0F4
:101C10005E4D056022E05D4D05601FE0544D6D682E
:101C200005F47012524D6D6805F48034022505EB01
:101C300092421CB9564D554305600BE04C4D6D6802
:101C400015F4003F03D0524D5543056002E04F4D5F
:101C50005543056002E04D4D056000BF00BF444D97
:101C60006D6805F0F00109094A4D6B5C0568DD40BF
:101C700045603F4D6D6805F4E061090A454D6B5CB8
:101C80004568DD4085603A4D6D6805F46051C90ACC
:101C9000404D6B5C4568DD40C560354D6D6805F4B1
:101CA0004041890B3C4D6B5CC568B5FBF3F50561A4
:101CB00030BD29B12E4A526902432D4B5A6104E0CE
:101CC0002B4A526982432A4B5A61704729B1284AEC
:101CD00092690243264B9A6104E0254A9269824345
:101CE000234B9A61704729B1214AD2690243204BA4
:101CF000DA6104E01E4AD26982431D4BDA61704703
:101D000029B11B4AD2680243194BDA6004E0184A31
:101D1000D2688243164BDA60704729B1144A1269BF
:101D20000243134B1A6104E0114A12698243104BBB
:101D30001A61704714494039086070470F49C864F8
:101D400070470B49C87170470948406A40F080707D
:101D500007494862704701460020054A92680A42D6
:101D600001D0012000E000207047014988727047CF
:101D7000001002400000FFF8FFFFF6FE00004242A4
:101D8000D8004242201002408004424200127A00F1
:101D900000093D00400000205000002010B504461E
:101DA000FE48844208D10121C014FFF7A9FF002199
:101DB000E014FFF7A5FFC4E0B4F1804F08D1012182
:101DC0000846FFF7AAFF00210120FFF7A6FFB8E0B1
:101DD000F348844208D101210220FFF79EFF002131
:101DE0000220FFF79AFFACE0EE48844208D10121BF
:101DF0000420FFF792FF00210420FFF78EFFA0E0F0
:101E0000E948844208D101210820FFF786FF00211C
:101E10000820FFF782FF94E0E448844208D10121C2
:101E20001020FFF77AFF00211020FFF776FF88E0EF
:101E3000DF48844208D101212020FFF76EFF0021F6
:101E40002020FFF76AFF7CE0DA48844208D10121B4
:101E50004014FFF755FF00216014FFF751FF70E0B9
:101E6000D548844209D10121C804FFF749FF002168
:101E70004FF40020FFF744FF63E0D048844209D1CB
:101E800001210805FFF73CFF00214FF48010FFF708
:101E900037FF56E0CA48844209D101214805FFF7BF
:101EA0002FFF00214FF40010FFF72AFF49E0C5483B
:101EB000844208D101214020FFF72FFF002140205C
:101EC000FFF72BFF3DE0C048844208D1012180206C
:101ED000FFF723FF00218020FFF71FFF31E0BB4801
:101EE000844208D101218015FFF717FF0021A015BA
:101EF000FFF713FF25E0B648844209D10121080409
:101F0000FFF7FEFE00214FF48030FFF7F9FE18E0E6
:101F1000B048844209D101214804FFF7F1FE0021B5
:101F20004FF40030FFF7ECFE0BE0AB48844208D1E1
:101F300001218804FFF7E4FE00214FF48020FFF721
:101F4000DFFE10BD00220288944B98420ED0994BC0
:101F500098420BD0B0F1804F08D0914B984205D0F9
:101F6000904B984202D0904B984204D14FF68F7319
:101F70001A404B881A438D4B984207D08C4B98429D
:101F800004D04FF6FF431A40CB881A4302808B8857
:101F900083850B880385814B98420BD0854B9842F3
:101FA00008D08B4B984205D08A4B984202D08A4B7E
:101FB000984201D10B7A038601238382704770B562
:101FC000002400220023058C4FF6FE763540058460
:101FD000028C8388048B4FF68F752C40B51E2C40E5
:101FE0000D882C43751E2A400D892A434D882A43AB
:101FF0006A4DA8420BD06F4DA84208D0744DA8423C
:1020000005D0744DA84202D0734DA84213D14FF6AB
:10201000F7752A404D892A434FF6FB752A408D8873
:102020002A434FF6FF652B404FF6FF552B408D8915
:102030002B43CD892B4383800483CD8885860284FE
:1020400070BD70B5002400220023058C4FF6EF769A
:1020500035400584028C8388048B48F6FF752C403C
:102060004FF6FF452C400D884FF6FF7606EA052512
:102070002C434FF6DF752A400D8906EA05152A43E1
:102080004D8806EA05152A43444DA84202D0494D21
:10209000A8421DD14FF67F752A404D894FF6FF7635
:1020A00006EA05152A434FF6BF752A408D8806EAD1
:1020B00005152A434FF6FF352B404FF2FF752B4095
:1020C0008D8906EA85052B43CD8906EA85052B43D4
:1020D00083800483CD880587028470BD70B5002499
:1020E00000220023058C4FF6FF6635400584028CE4
:1020F0008388848B4FF68F752C404FF6FC752C40EF
:102100000D882C434FF6FF552A400D894FF6FF7678
:1021100006EA05252A434D8806EA05252A431F4D70
:10212000A84202D0234DA8421DD14FF2FF752A408C
:102130004D894FF6FF7606EA05252A434FF6FF350F
:102140002A408D8806EA05252A434EF6FF752B4066
:102150004DF6FF752B408D8906EA05152B43CD8979
:1021600006EA05152B4383808483CD888587028406
:1021700070BD70B5002200230024058C4EF6FF765A
:1021800035400584038C8488828B48F6FF752A408D
:102190004FF6FF452A400D8820E00000002C01404A
:1021A0000004004000080040000C00400010004007
:1021B0000014004000340140004C01400050014038
:1021C0000054014000180040001C00400020004066
:1021D0000040014000440140004801404FF6FF76B6
:1021E00006EA05252A434DF6FF752B400D8906EAC0
:1021F00005352B434D8806EA05352B43FA4DA84299
:1022000002D0FA4DA84208D14BF6FF752C408D89BB
:102210004FF6FF7606EA85152C4384808283CD88AD
:10222000A0F84050038470BD828B4FF2FF331A40F8
:102230008283828B4FF6FF7303EA01231A43828362
:102240007047F0B50C461546002200210026078C89
:102250004EF6FF7C07EA0C070784828B018C4FF651
:10226000FF7707EA043640F6FF473A404FF6FF771C
:1022700007EA05273A434FF6FF7707EA03373A4361
:10228000D94FB8420ED0D94FB8420BD0B0F1804FE1
:1022900008D0D74FB84205D0D64FB84202D0D64F5B
:1022A000B84206D14DF6FF77394046F4805739439E
:1022B00005E047F6FF57394044F48057394382839D
:1022C0000184F0BD828B4FF6F3731A408283828BB8
:1022D0000A4382837047F0B50C4615460022002160
:1022E0000026078C4FF6FF6C07EA0C070784828BE9
:1022F000018C4FF6FF7707EA04264FF60C773A4039
:102300004FF6FF7707EA03172F433A43B64FB84219
:102310000ED0B64FB8420BD0B0F1804F08D0B44FBA
:10232000B84205D0B34FB84202D0B34FB84206D13D
:102330004FF6FF57394046F48077394305E04FF2B6
:10234000FF57394044F48077394382830184F0BDDC
:10235000028B4FF2FF331A400283028B4FF6FF735A
:1023600003EA01231A4302837047F0B50C46154671
:10237000002200210026078C4FF6EF7C07EA0C07AD
:102380000784028B018C4FF6FF7707EA041640F6AC
:10239000FF473A404FF6FF7707EA03373A434FF6D5
:1023A000FF7707EA05273A438F4FB8420ED08F4F89
:1023B000B8420BD0B0F1804F08D08D4FB84205D055
:1023C0008C4FB84202D08C4FB84206D14FF6DF771F
:1023D000394046F01007394305E04FF65F77394042
:1023E00044F01007394302830184F0BD028B4FF69D
:1023F000F3731A400283028B0A4302837047F0B5DD
:102400000C46154600220021068C4FF6FE773E4012
:102410000684028B018C4FF60C7632407E1C06EA55
:1024200003162E433243704EB0420ED06F4EB04270
:102430000BD0B0F1804F08D06D4EB04205D06D4E3C
:10244000B04202D06C4EB04206D14FF6FD7631401C
:1024500044F00106314305E04FF6F576314044F093
:102460000106314302830184F0BD70B505460C4678
:102470005D4885420ED05D4885420BD0B5F1804F56
:1024800008D05B48854205D05A48854202D05A4858
:10249000854200D100E000BF208850B92389A2887E
:1024A00061882846FFF7ABFFE1882846FFF79EFFCB
:1024B00025E0208804280AD12389A288618828463B
:1024C000FFF753FFE1882846FFF742FF17E0208817
:1024D00008280AD12389A28861882846FFF7FBFED5
:1024E000E1882846FFF7EEFE09E02389A28861888B
:1024F0002846FFF7A6FEE1882846FFF795FE70BD47
:102500002DE9F04105460C4600260127608808B9F0
:10251000022600E00026A088012801D1022700E061
:1025200001272088A0B92389A28861882846FFF75F
:1025300066FFE1882846FFF759FF23893A4631466E
:102540002846FFF712FFE1882846FFF701FF13E056
:102550002389A28861882846FFF707FFE18828467B
:10256000FFF7F6FE23893A4631462846FFF747FF34
:10257000E1882846FFF73AFFBDE8F0810A884B88DA
:102580001A438B881A43CB881A430B891A434B8909
:102590001A438B891A43A0F8442070474FF6FF7105
:1025A000818000210180C18041800172704700213B
:1025B000018041808180C180018141818181C1810F
:1025C0007047002101804180012181800021C1806C
:1025D000018170470021018041808180C18001819B
:1025E0004181818170470000002C0140003401408E
:1025F0000004004000080040000C004021B10288A7
:1026000042F00102028004E002884FF6FE731A4095
:102610000280704731B1B0F8442042F40042A0F883
:10262000442005E0B0F84420C2F30E02A0F8442094
:1026300070471AB183890B43838102E083898B43FE
:10264000838170478182704741EA0203A0F84830D5
:1026500070471AB183890B43838102E083898B43DE
:102660008381704701894FF6F872114001817047EC
:102670000A46002101894FF68F73194011430181E9
:10268000704730B504460D4629462046FFF7F0FF57
:10269000208940F00700208130BD2DE9F04104463B
:1026A0000D4616461F46602D06D13B460122314697
:1026B0002046FFF75AFE05E03B4601223146204600
:1026C000FFF79DFE29462046FFF7D2FF208940F004
:1026D00007002081BDE8F08130B50C46002101895A
:1026E000C9B24FF6FF7505EA032515432543294373
:1026F000018130BD2DE9F04105460E46174698464A
:10270000002443463A4631462846FFF7E5FF2C8928
:102710004FF6F870044044F007044FF68F70044001
:1027200044F070042C81BDE8F081F0B504460D46FC
:1027300016461F463B46324629462046FFF7CCFF49
:10274000208940F480402081F0BD0185828270475D
:102750000A46002101884FF68F731940114301800A
:102760007047F0B50C4615461E4600210022002396
:102770000189028B038C4FF6F877394021434FF6DD
:10278000FC473A4040F201173A434FF6DD773B40B1
:102790004FF6FF7707EA06172F433B430181028379
:1027A0000384F0BD0A460021018B4FF68F73194058
:1027B0001143018370470A460021018B48F6FF73DD
:1027C00019404FF6FF7303EA022319430183704750
:1027D0000A460021818B4FF68F7319401143818384
:1027E00070470A460021818B48F6FF7319404FF667
:1027F000FF7303EA022319438183704721B10288E2
:1028000042F08002028004E002884FF67F731A4093
:102810000280704721B1828842F00402828004E085
:1028200082884FF6FB731A408280704721B18288FC
:1028300042F00802828004E082884FF6F7731A4063
:102840008280704721B1828842F00102828004E0D8
:1028500082884FF6FE731A40828070470A46002134
:10286000018B4FF6F77319401143018370470A46F5
:102870000021018B4FF2FF7319404FF6FF7303EAFB
:1028800002231943018370470A460021818B4FF6CA
:10289000F77319401143818370470A460021818BE9
:1028A0004FF2FF7319404FF6FF7303EA02231943F7
:1028B000818370470A460021018B4FF6FB73194054
:1028C0001143018370470A460021018B4FF6FF3305
:1028D00019404FF6FF7303EA02231943018370473F
:1028E0000A460021818B4FF6FB7319401143818307
:1028F00070470A460021818B4FF6FF3319404FF68F
:10290000FF7303EA02231943818370470A460021BB
:10291000018B4FF67F7319401143018370470A46BC
:102920000021018BC1F30E014FF6FF7303EA02236E
:102930001943018370470A460021818B4FF67F734C
:1029400019401143818370470A460021818BC1F3EE
:102950000E014FF6FF7303EA022319438183704788
:102960000A460021018C4FF6FD7319401143018482
:1029700070470A460021018C4FF6F7731940114346
:10298000018470470A460021018C4FF6DF7319401D
:102990004FF6FF7303EA02131943018470470A4696
:1029A0000021018C4FF67F7319404FF6FF7303EA45
:1029B00002131943018470470A460021018C4FF627
:1029C000FF5319404FF6FF7303EA022319430184B2
:1029D00070470A460021018C4FF2FF7319404FF6F1
:1029E000FF7303EA02231943018470470A4600215A
:1029F000018C4DF6FF7319404FF6FF7303EA023363
:102A000019430184704730B5002301248C40A3B2E0
:102A1000048C9C430484048C02FA01F5ADB22C436F
:102A2000048430BD30B5002304248C40A3B2048C50
:102A30009C430484048C02FA01F5ADB22C43048457
:102A400030BD70B50346002000241846183001251B
:102A50008D40ACB21D8CA5431D8409B1082909D154
:102A600000EB6100056825F07005056005681543F9
:102A700005600EE00D1FC5F34E052844056825F4DA
:102A8000E045056005684FF6FF7606EA0226354305
:102A9000056070BD21B1028842F00202028004E0AC
:102AA00002884FF6FD731A400280704721B10288F8
:102AB00042F00402028004E002884FF6FB731A40E1
:102AC0000280704721B1828842F08002828004E057
:102AD00082884FF67F731A408280704702884FF6D3
:102AE000F7731A40028002880A4302807047828886
:102AF0004FF68F731A40828082880A438280704723
:102B000002894FF6F8731A40028102890A43028152
:102B1000704702894FF67F731A40028102890A4387
:102B20000281704781847047818570478186704734
:102B30000187704781877047A0F84010704702886E
:102B40004FF6FF431A40028002880A430280704712
:102B50000146888E70470146088F70470146888F6E
:102B600070470146B1F8400070470146888C7047B5
:102B70000146088D704702460020138A0B4201D09F
:102B8000012000E000207047CA430282704730B540
:102B90000246002000230024158A05EA01039589D6
:102BA00005EA010413B10CB1012000E0002030BDA2
:102BB000CA4302827047000010B50446FB488442B5
:102BC00009D101218803FFF79BF800214FF48040D1
:102BD000FFF796F832E0F648844209D10121480413
:102BE000FFF79BF800214FF40030FFF796F825E03F
:102BF000F048844209D101218804FFF78EF80021B2
:102C00004FF48020FFF789F818E0EB48844209D19F
:102C10000121C804FFF781F800214FF40020FFF7DD
:102C20007CF80BE0E548844208D101210805FFF754
:102C300074F800214FF48010FFF76FF810BD2DE9F4
:102C4000F04786B005460E460024A24600BFA146C6
:102C50000027B08900B100BF2F462C8A4CF6FF70C8
:102C60000440F08804432C82AC894EF6F3100440F3
:102C7000B08831890843718908430443AC81AC8A28
:102C80004FF6FF400440B0890443AC8201A8FEF730
:102C9000B0FFC648874202D1DDF810A001E0DDF8A0
:102CA0000CA0A88910F4004F08D00AEBCA0000EB72
:102CB0000A1031684900B0FBF1F807E00AEBCA00DE
:102CC00000EB0A1031688900B0FBF1F86420B8FB12
:102CD000F0F004012009642101FB1089A88910F497
:102CE000004F08D0322000EBC900B0FBF1F000F03B
:102CF0000700044308E0322000EB09106421B0FB18
:102D0000F1F000F00F0004432C8106B0BDE8F0871D
:102D10004FF41651016000218180C18001810C2196
:102D2000418100218181704710B502460020108A40
:102D30004FF2FF0318400B884C8823438C882343B1
:102D4000CC8823431843108210BD002101804180AC
:102D50008180C180704721B1828942F40052828112
:102D600004E082894DF6FF731A4082817047F0B506
:102D700003460024002600250020A1F510676A3FC5
:102D800000D100BF1846C1F3421401F01F0601270D
:102D900007FA06F5012C01D10C3004E0022C01D118
:102DA000103000E014301AB107682F43076002E0CA
:102DB0000768AF430760F0BD1AB1838A0B43838273
:102DC00002E0838A8B4383827047028A4FF6F07356
:102DD0001A400282028A0A430282704782894FF2B5
:102DE000FF731A40828182890A438281704721B130
:102DF000828942F00202828104E082894FF6FD73EB
:102E00001A4082817047028A4FF6DF731A400282AD
:102E1000028A0A430282704721B1028A42F4804248
:102E2000028204E0028A4BF6FF731A400282704766
:102E3000C1F308028280704701468888C0F3080009
:102E40007047818941F0010181817047028BD2B2C4
:102E50000283028B42EA012202837047028B02F452
:102E60007F420283028B0A430283704721B1828A28
:102E700042F02002828204E0828A4FF6DF731A4019
:102E80008282704721B1828A42F01002828204E07D
:102E9000828A4FF6EF731A408282704721B1828A8C
:102EA00042F00802828204E0828A4FF6F7731A40E9
:102EB0008282704721B1828942F40042828103E01C
:102EC0008289C2F30E028281704721B1828A42F464
:102ED0000062828204E0828A4FF2FF731A4082828B
:102EE0007047828A4FF6FB731A408282828A0A43B5
:102EF0008282704721B1828A42F00202828204E01B
:102F0000828A4FF6FD731A40828270470246002083
:102F1000B1F5007F00D100BF13880B4201D0012022
:102F200000E00020704701F40072B2F5007F00D18C
:102F300000BFCA430280704770B5024600240023D8
:102F400000250020A1F510666A3E00D100BFC1F344
:102F5000421501F01F03012606FA03F3012D02D1E9
:102F60009689334006E0022D02D1168A334001E0F3
:102F7000968A33400C12012606FA04F4168834406F
:102F800013B10CB1012000E0002070BD10B500228B
:102F90000023A1F510646A3C00D100BF0A1201248D
:102FA0009440A3B2DC43048010BD0000003801400F
:102FB0000044004000480040004C004000500040E9
:102FC00080EA010210B502F00043400026D04A001A
:102FD00023D04FEA106101EB1261C0F35600C2F337
:102FE000560240F4000042F40002A0FB0220A1F1CE
:102FF0007F014FEA0040140401D000F1010050EAC3
:10300000124001D44000491EC2B20C0604EBD0109D
:10301000401C4008802A02D003E0002010BD20F0B0
:103020000100002900DA0020184310BD2DE9FE4FF1
:1030300081EA030404F0004421F0004100944FF0C1
:10304000000B23F0004350EA010402D052EA0304CB
:1030500004D10020014603B0BDE8F08FC3F30A5449
:10306000C1F30A552C44A4F2F3340194A0FB02549A
:10307000C1F3130141F48011C3F3130343F480132C
:1030800001FB024400FB034E840A970A44EA815480
:1030900047EA8357A4FB076802958D0A05FB07855D
:1030A0004FEA932C04FB0C542705029D4FEA065867
:1030B00047EA1637B5EB08056EEB070C870E920E44
:1030C00047EA811742EA8312A7FB0201B6EB0B0124
:1030D00064EB00042B0D43EA0C335E1844EB1C50E8
:1030E000DA465146E7FB0201C5F313044FEA0B33FE
:1030F00043EA14534FEA0432019C43EA0603A4F165
:103100000C040294009CCDE900B400F091F8A2E711
:1031100096230022114600F051B800F0004220F042
:103120000040C10DC0F3160040F400007F2901DA11
:1031300000207047962903DCC1F19601C84001E0E8
:1031400096398840002AF4D04042704700F000428F
:1031500030F000400AD0C10D01F56071C0F31600D7
:1031600042EA0151C208400711437047002001465E
:10317000704701F0004330B421F0004150EA0102F1
:1031800006D00A0DA2F56072C1F31301002A02DC19
:1031900030BC00207047440F44EAC104C100E0186D
:1031A00030BC00EBC250AFF300800029A8BF7047CD
:1031B000401C490008BF20F00100704710B4B0FA6D
:1031C00080FC00FA0CF050EA010404BF10BC704708
:1031D00049B1CCF1200421FA04F411FA0CF118BF22
:1031E000012121430843A3EB0C01CB1D0106000A7A
:1031F000002BBEBF002010BC704700EBC350104432
:103200000029A4BF10BC7047401C490008BF20F033
:10321000010010BC704710B5002B08DA401C41F1CA
:10322000000192185B411A4301D120F0010010BD4A
:103230002DE9F04D92469B4611B1B1FA81F202E0C0
:10324000B0FA80F22032904600F056F804460F465D
:1032500040EA0A0041EA0B0153465A46084303D1AB
:1032600020463946BDE8F08D114653EA010015D0DD
:10327000C8F14002504600F04EF805460E46504652
:103280005946424600F038F8084301D0012000E0DA
:103290000020054346EAE0762C4337430A984FEA7C
:1032A0004453A0EB08004FEAD4240A304FF0000248
:1032B00044EA47544FEAD72502D500200146D1E71A
:1032C000010510196941DDE9084500196941BDE8AA
:1032D000F04DA0E7064C074D06E0E06840F0010322
:1032E00094E8070098471034AC42F6D3FCF702FF8D
:1032F0005433000874330008202A04DB203A00FA13
:1033000002F1002070479140C2F1200320FA03F33C
:10331000194390407047202A04DB203A21FA02F03A
:103320000021704721FA02F3D040C2F120029140FF
:1033300008431946704702E008C8121F08C1002A56
:10334000FAD170477047002001E001C1121F002A26
:10335000FBD17047743300080000002054000000C7
:1033600036330008C833000854000020CC040000A5
:103370004633000800A24A040000000000000000DC
:103380000102030406070809000000000000000015
:10339000000000000000000000000000000000002D
:1033A000000000000000000000000000000000001D
:1033B00000000000000000000102030401020304F9
:0833C0000607080902040608D3
:04000005080000ED02
:00000001FF
