:020000040800F2
:10000000200D0020C90A00080D0300080F03000896
:1000100013030008170300081B030008000000007A
:100020000000000000000000000000001F030008A6
:100030002103000800000000230300082503000836
:10004000E30A0008E30A0008E30A0008E30A0008DC
:10005000E30A0008E30A0008E30A0008E30A0008CC
:10006000E30A0008E30A0008E30A0008E30A0008BC
:10007000E30A0008E30A0008E30A0008E30A0008AC
:10008000E30A0008E30A0008E30A0008E30A00089C
:10009000E30A0008E30A0008E30A0008E30A00088C
:1000A000E30A0008E30A0008E30A0008E30A00087C
:1000B000FF2C0008D307000853080008E30A0008D3
:1000C000E30A0008E30A0008E30A0008E30A00085C
:1000D000E30A00083F0A0008E30A0008E30A0008F0
:1000E000E30A0008E30A0008E30A0008E30A00083C
:1000F000E30A0008E30A0008E30A0008E30A00082C
:10010000E30A0008E30A0008E30A0008E30A00081B
:10011000E30A0008E30A0008E30A0008E30A00080B
:10012000E30A0008E30A0008E30A0008E30A0008FB
:1001300000F002F800F06BF80AA090E8000C82448E
:100140008344AAF10107DA4501D100F060F8AFF26B
:10015000090EBAE80F0013F0010F18BFFB1A43F0A5
:10016000010318478C440000AC4400000A444FF0DF
:10017000000C10F8013B13F0070408BF10F8014B06
:100180001D1108BF10F8015B641E05D010F8016B4B
:10019000641E01F8016BF9D113F0080F1EBF10F8AF
:1001A000014BAD1C0C1B09D16D1E58BF01F801CBD2
:1001B000FAD505E014F8016B01F8016B6D1EF9D555
:1001C0009142D6D37047000000230024002500266A
:1001D000103A28BF78C1FBD8520728BF30C148BFAA
:1001E0000B607047642903F06183752903F05E8317
:1001F000782903F09783632903F01985732903F0A5
:100200001E85002070471FB51FBD10B510BD03F03F
:1002100049FD1146FFF7F7FF00F008F803F067FD0E
:1002200003B4FFF7F2FF03BC00F0ACFBB2B000F088
:100230003BFB00F0A1FB4FF4165000F0B1FB00F0C7
:1002400087F900F05FF9204841684820884700F0AE
:10025000FDF91EA003F0CCFA21A003F0C9FA41F683
:100260001F4140F2E73000F087FA0121F92000F049
:10027000C3FA27E02248008810F4004F22D020481B
:100280000578002411E01F48005D0DF804001D48AA
:10029000015D1D4800F08EFF00BF40211A4800F0AC
:1002A000F7FF0128F9D1601CC4B2AC42EBDB00209F
:1002B000134908802021144800F0F7FFC821684640
:1002C00003F024FCD6E70000000500200D0AB6A8C4
:1002D000CAB1C6F7D6D0B6CFCAB5D1E90D0A00006B
:1002E0000D0ABACED6BED1EEA1A2D0BBD4B6CFE80D
:1002F000A1A2D0ECB3BFC1FAD7E9BACF0D0A000072
:10030000A0040020F405002000380140704700BF21
:10031000FEE700BFFEE700BFFEE700BFFEE7704755
:1003200070477047704700000CB5002001900090A6
:100330006B48006840F480306949086000BF684835
:10034000006800F4003000900198401C0190009873
:1003500018B90198B0F5A06FF1D16148006810F4A8
:10036000003F02D00120009001E0002000900098A2
:10037000012842D15B48006840F0100059490860EC
:100380000846006820F0030008600846006840F056
:100390000200086052484068514948600846406879
:1003A00048600846406840F48060486008464068FD
:1003B00020F47C1048600846406840F4E81048602B
:1003C0000846006840F08070086000BF444800683C
:1003D00010F0007FFAD04248406820F00300404906
:1003E00048600846406840F00200486000BF3C4852
:1003F000406800F00C000828F9D10CBD10B5FFF7DB
:1004000093FF10BD10B53648006840F00100344934
:100410000860084640683449084031494860084649
:100420000068324908402E4908600846006820F4F8
:10043000802008600846406820F4FE0048604FF4C1
:100440001F008860FFF7DAFF4FF00060284908605E
:1004500010BD10B5002100200022214B5B6803F085
:100460000C0121B1042906D0082928D107E0214B2D
:10047000214C236027E01F4B1F4C236023E0184BC7
:100480005B6803F47010164B5B6803F48032022340
:1004900003EB904022B9194B4343174C23600DE006
:1004A0000F4B5B6813F4003F04D0144B4343124CD2
:1004B000236003E00F4B43430F4C236003E00D4BDD
:1004C0000D4C236000BF00BF054B5B68C3F30313F3
:1004D0000B4CE15C084B1B68CB40074C236010BD04
:1004E00000100240002002400000FFF8FFFFF6FE6F
:1004F00008ED00E000127A000000002000093D0035
:100500000400002008B50121482001F04BF920200B
:10051000ADF8000010208DF8030003208DF80200D4
:100520006946094800F0BEFB2021074800F065FC41
:100530002020ADF800006946044800F0B3FB2021FC
:10054000024800F05AFC08BD000C014000180140B0
:1005500008B50121442001F025F91C20ADF8000068
:1005600048208DF803006946354800F09BFB0120C8
:10057000ADF8000028208DF803006946314800F0EE
:1005800091FB08BD10B5044614B101202E49087036
:100590002D480078002837D01021294800F013FC9E
:1005A00078B10821264800F00EFC50B104212448FF
:1005B00000F009FC28B10121224800F004FC0128C8
:1005C00022D10A2000F0ACF900201F490870102148
:1005D0001B4800F0F8FB08B9012010BD082118489D
:1005E00000F0F1FB08B90220F7E70421144800F0FD
:1005F000EAFB08B90320F0E70121124800F0E3FB11
:1006000001281BD10420E8E710210D4800F0DBFB96
:10061000012813D108210A4800F0D5FB01280DD18B
:100620000421074800F0CFFB012807D1012105482C
:1006300000F0C9FB10B90120034908700020CCE785
:1006400000180140000801401400002000B585B0EA
:100650000121042001F0A6F80121480701F0AFF8BC
:100660001020ADF8100000208DF8130003208DF845
:10067000120004A93B4800F015FB1021394800F096
:10068000BCFB00200090019002900220039069467C
:10069000002000F062FE0121002000F07BFE00211E
:1006A000084600F0D8FE05B000BD2DE9F04704462D
:1006B000204603F04FFE81462B49484603F034FDA7
:1006C00081464FF08B41484603F058FE824603F0C6
:1006D000FFFC07464FF06632244B03F04DFB054606
:1006E00003F018FB8146484603F0FCFD85B229461D
:1006F000002000F0B0FEBDE8F0872DE9FE4F054672
:100700000E4617469846DDF834904FF0000A002454
:10071000174890FBF5FB584603F004FE029048464C
:1007200003F018FE01460090029803F0FDFC83469A
:1007300003F0BCFD01900F48076000BF0DE00024EE
:1007400007E058F824000B490860019800F0C5F84C
:10075000641C4C45F5DB0AF1010AB245EFDBBDE84C
:10076000FE8F00000008014000007A4466660A40DF
:1007700040420F00087400407FB505460C46012139
:10078000022001F01CF8ADF80850ADF8044000203C
:10079000ADF80A00ADF8060001A93D4801F03EF9A8
:1007A000012211463A4801F0B0FC1D208DF80000EE
:1007B00000208DF8010003208DF8020001208DF843
:1007C0000300684600F0A5F90121314801F082FCE0
:1007D0007FBD10B501212E4801F045FF58B1012120
:1007E0002B4801F051FF2B48006808B9012000E0B8
:1007F00000202849086010BD7FB505460C46012140
:10080000042000F0DCFFADF80850ADF804400020F3
:10081000ADF80A00ADF8060001A91F4801F0FEF886
:10082000012211461C4801F070FC1E208DF80000CA
:1008300000208DF8010003208DF8020001208DF8C2
:100840000300684600F065F90121134801F042FCFD
:100850007FBD10B50121104801F005FFB0B10121A5
:100860000D4801F011FF0D480D49096850F82100AD
:100870000C4908600A480068401C0949086008469D
:100880000068B0F5907F01D10020086010BD000025
:10089000000400409481214200080040180000201C
:1008A000980400200874004010B56FF0040000F0B8
:1008B0007BF92D4800682D49B0FBF1F02C490870F8
:1008C0000846007800EB4001C1EBC0104FF6FF7105
:1008D00001EAC0002749088010BD0146244A127869
:1008E0004A434FF0E0235A6100229A611A46126986
:1008F00042F001021A6100BF4FF0E022106910F0CF
:10090000010F02D010F4803FF6D04FF0E0221269C0
:1009100022F001024FF0E0231A6100229A61704731
:100920000146144A12884A434FF0E0235A610022DC
:100930009A611A46126942F001021A6100BF4FF033
:10094000E022106910F0010F02D010F4803FF6D0C1
:100950004FF0E022126922F001024FF0E0231A6109
:1009600000229A61704700000000002000127A0007
:100970009C0400209E04002010B54FF4A06000F0FD
:10098000C3F810BD014600BF704700BF4A4A128835
:1009900012F0400FFAD0C2B2474B1B1D1A807047AD
:1009A00010B586B00446012144F2040000F0FAFEBE
:1009B000414800F0C3FA4FF40070ADF81400032072
:1009C0008DF8160018208DF8170005A93B4800F097
:1009D00069F94FF48060ADF8140004208DF8170019
:1009E00005A9364800F05EF925208DF800000320A7
:1009F0008DF801008DF8020001208DF80300684693
:100A000000F087F801940020ADF80800ADF80A0066
:100A1000ADF80C00ADF810000C20ADF80E0001A9E7
:100A2000254800F0CEFA012240F22551224800F07C
:100A300060FB0121204800F050FB06B010BD10B54E
:100A400040F225511C4800F039FC10B31A4800F060
:100A5000B5FBC4B21A48008810F4004F2BD11848D7
:100A6000008810F4804F0CD00A2C03D000201449C9
:100A7000088020E01248008840F4004010490880B7
:100A800019E00D2C06D10E48008840F480400C4936
:100A9000088010E00A480088C0F30D0009490C5492
:100AA00007480088401C0649088008460088C72877
:100AB00001DD0020088010BD003801400008014021
:100AC000A0040020F4050020094880470948004799
:100AD000FEE7FEE7FEE7FEE7FEE7FEE7FEE7FEE7EE
:100AE000FEE7FEE704480549054A064B704700004B
:100AF000050400083101000820070020200D002017
:100B0000200900202009002031490143314A1160A9
:100B1000704770B5002100230F22C4780CB32D4C10
:100B2000246804F4E064C4F5E064210AC1F104031C
:100B3000CA40447804FA03F184781440214309013F
:100B4000254C0678A155047804F01F050124AC401B
:100B500005786D114FF0E02606EB8505C5F80041DC
:100B600009E0047804F01F050124AC401B4D067811
:100B7000761145F8264070BD194A0A400243154BCC
:100B80001B1F1A60704739B1124A121D12680243C6
:100B9000104B1B1D1A6006E00E4A121D126882439C
:100BA0000C4B1B1D1A607047042808D14FF0E02140
:100BB000096941F004014FF0E022116107E04FF0B4
:100BC000E021096921F004014FF0E0221161704732
:100BD0000000FA050CED00E000E400E080E100E038
:100BE00080FFFF1F10B50446CA48844208D1012186
:100BF000042000F0F1FD0021042000F0EDFD46E0AE
:100C0000C548844208D10121082000F0E5FD0021FB
:100C1000082000F0E1FD3AE0C048844208D10121FB
:100C2000102000F0D9FD0021102000F0D5FD2EE0AD
:100C3000BB48844208D10121202000F0CDFD0021D5
:100C4000202000F0C9FD22E0B648844208D10121ED
:100C5000402000F0C1FD0021402000F0BDFD16E065
:100C6000B148844208D10121802000F0B5FD002167
:100C7000802000F0B1FD0AE0AC48844207D1012198
:100C8000801500F0A9FD0021A01500F0A5FD10BD04
:100C900010B50121084600F09FFD0021012000F061
:100CA0009BFD10BD2DE9F0410246002500260020E5
:100CB00000230024002791F803C00CF00F0591F8E1
:100CC00003C01CF0100F03D091F802C04CEA0505D8
:100CD00091F800C0BCF1000F31D0146800202BE067
:100CE0004FF0010C0CFA00F3B1F800C00CEA030657
:100CF0009E4220D183004FF00F0C0CFA03F7BC4347
:100D000005FA03FC4CEA040491F803C0BCF1280F77
:100D100006D14FF0010C0CFA00FCC2F814C00AE036
:100D200091F803C0BCF1480F05D14FF0010C0CFA4B
:100D300000FCC2F810C0401C0828D1D31460B1F8E0
:100D400000C0BCF1FF0F34DD546800202EE000F13C
:100D5000080C4FF0010808FA0CF3B1F800C00CEAD7
:100D600003069E4221D183004FF00F0C0CFA03F7CB
:100D7000BC4305FA03FC4CEA040491F803C0BCF13F
:100D8000280F05D100F1080C08FA0CF8C2F81480FD
:100D900091F803C0BCF1480F07D100F1080C4FF0E7
:100DA000010808FA0CF8C2F81080401C0828CED3BD
:100DB0005460BDE8F0814FF6FF710180022181701F
:100DC0000421C17070470246002093680B4201D095
:100DD000012000E0002070470146886880B270471B
:100DE00002460020D3680B4201D0012000E0002021
:100DF00070470146C86880B2704701617047416121
:100E000070470AB1016100E041617047C1607047FD
:100E10004FF480320A438261816182618269826912
:100E2000704702460020424B18684FF68073184006
:100E300040EA021008433E4B186070473D49C861C4
:100E40007047F0B50A46002300240021002500F079
:100E50000046B6F1004F02D1354EF16901E0344E43
:100E60007168C0F3034583B200F44016B6F5401F25
:100E700008D121F070612E4E766826F070662C4FF6
:100E80007E6012E000F48016B6F5801F06D10326BE
:100E900006FA05F4A14341F0706106E0460D360103
:100EA00003FA06F6B14341F0706122B1460D3601F6
:100EB00003FA06F6314300F00046B6F1004F02D1C6
:100EC0001B4EF16101E01A4E7160F0BD30B5002299
:100ED0008B071C0F0F2303FA04F2154B08338C10F9
:100EE00053F824309343124C08348D1044F82530C5
:100EF00023468C1053F824308C07240F00FA04F496
:100F000023430B4C08348D1044F8253030BD0A497A
:100F10000860704700080140000C014000100140CB
:100F20000014014000180140001C01400020014055
:100F30000000014000002042DC00204210B50446C1
:100F4000FB48844209D10121880300F045FC0021BF
:100F50004FF4804000F040FC32E0F648844209D172
:100F60000121480400F045FC00214FF4003000F05E
:100F700040FC25E0F048844209D10121880400F0BA
:100F800038FC00214FF4802000F033FC18E0EB48DF
:100F9000844209D10121C80400F02BFC00214FF448
:100FA000002000F026FC0BE0E548844208D1012136
:100FB000080500F01EFC00214FF4801000F019FC21
:100FC00010BD2DE9F04786B005460E460024A24626
:100FD00000BFA1460027B08900B100BF2F462C8A70
:100FE0004CF6FF700440F08804432C82AC894EF626
:100FF000F3100440B08831890843718908430443E1
:10100000AC81AC8A4FF6FF400440B0890443AC8207
:1010100001A800F05AFBC648874202D1DDF810A0B3
:1010200001E0DDF80CA0A88910F4004F08D00AEB0D
:10103000CA0000EB0A1031684900B0FBF1F807E084
:101040000AEBCA0000EB0A1031688900B0FBF1F826
:101050006420B8FBF0F004012009642101FB108931
:10106000A88910F4004F08D0322000EBC900B0FB73
:10107000F1F000F00700044308E0322000EB091013
:101080006421B0FBF1F000F00F0004432C8106B0A6
:10109000BDE8F0874FF41651016000218180C180C6
:1010A00001810C21418100218181704710B50246E8
:1010B0000020108A4FF2FF0318400B884C8823430E
:1010C0008C882343CC8823431843108210BD002111
:1010D000018041808180C180704721B1828942F4C2
:1010E0000052828104E082894DF6FF731A408281AA
:1010F0007047F0B503460024002600250020A1F526
:1011000010676A3F00D100BF1846C1F3421401F0D6
:101110001F06012707FA06F5012C01D10C3004E067
:10112000022C01D1103000E014301AB107682F43AF
:10113000076002E00768AF430760F0BD1AB1838A19
:101140000B43838202E0838A8B4383827047028A47
:101150004FF6F0731A400282028A0A4302827047F5
:1011600082894FF2FF731A40828182890A43828109
:10117000704721B1828942F00202828104E08289B3
:101180004FF6FD731A4082817047028A4FF6DF7373
:101190001A400282028A0A430282704721B1028AFF
:1011A00042F48042028204E0028A4BF6FF731A4046
:1011B00002827047C1F30802828070470146888826
:1011C000C0F308007047818941F0010181817047B7
:1011D000028BD2B20283028B42EA01220283704761
:1011E000028B02F47F420283028B0A430283704720
:1011F00021B1828A42F02002828204E0828A4FF684
:10120000DF731A408282704721B1828A42F0100255
:10121000828204E0828A4FF6EF731A40828270471E
:1012200021B1828A42F00802828204E0828A4FF66B
:10123000F7731A408282704721B1828942F40042DA
:10124000828103E08289C2F30E028281704721B15C
:10125000828A42F40062828204E0828A4FF2FF7343
:101260001A4082827047828A4FF6FB731A4082824C
:10127000828A0A438282704721B1828A42F0020246
:10128000828204E0828A4FF6FD731A4082827047A0
:1012900002460020B1F5007F00D100BF13880B4249
:1012A00001D0012000E00020704701F40072B2F587
:1012B000007F00D100BFCA430280704770B502466C
:1012C0000024002300250020A1F510666A3E00D10D
:1012D00000BFC1F3421501F01F03012606FA03F314
:1012E000012D02D19689334006E0022D02D1168AE3
:1012F000334001E0968A33400C12012606FA04F4CA
:101300001688344013B10CB1012000E0002070BDFC
:1013100010B500220023A1F510646A3C00D100BF83
:101320000A1201249440A3B2DC43048010BD0000E3
:10133000003801400044004000480040004C00409C
:101340000050004010B50121480700F052FA00217A
:101350004FF0005000F04DFA10BD30B500220023D0
:101360005A4C226840F6FE748440A243D1E90045FD
:101370002C438D682C43CD6844EA050303FA00F43E
:101380002243524C226030BD0021016041608160E7
:10139000C160704739B14D4A1268012383401A4336
:1013A0004A4B1A6006E0494A1268012383409A4377
:1013B000464B1A60704741B1444A12684FF480535B
:1013C00083401A43414B1A6007E0404A12684FF4C9
:1013D000805383409A433D4B1A60704710B551B11A
:1013E0003A4A121D126804090123A3401A43374BDD
:1013F0001B1D1A6009E0354A121D126804090123F9
:10140000A3409A43314B1B1D1A6010BD40B12F49B8
:10141000091D096841F003012C4A121D116007E003
:101420002A49091D096821F00301284A121D11608B
:10143000704710B53AB1254B1B6801FA00F42343FD
:10144000224C236006E0214B1B6801FA00F4A34301
:101450001E4C236010BD08B5002200921B4A00926A
:1014600000F10802009B1A440092009A116008BD26
:1014700008B500220092154A009200F11402009B68
:101480001A440092009A116008BD30B50024002370
:10149000082802D142EA012401E042EA01440B4B50
:1014A00000F120052B441C6030BD08B5014600202A
:1014B0000090064800902C2000EB9100009A104408
:1014C00000900098006880B208BD000000740040E1
:1014D000DD48006840F00100DB49086008464068CC
:1014E000DA490840D849486008460068D8490840A9
:1014F000D54908600846006820F480200860084646
:10150000406820F4FE0048604FF41F008860704778
:10151000CD49096821F48031CB4A11601146096830
:1015200021F480211160B0F5803F03D0B0F5802F09
:101530000ED106E0C449096841F48031C24A116005
:1015400007E0C149096841F4A021BF4A116000E0E9
:1015500000BF00BF704710B50146002200230020E5
:101560004A11012A02D1B84C236806E0022A02D1AE
:10157000B54C236A01E0B44C636A01F01F020124F8
:1015800094401C4201D0012000E0002010BD38B57D
:10159000002000900024002500BF3120FFF7DBFF72
:1015A00005460098401C00900098B0F5A06F01D04F
:1015B000002DF2D03120FFF7CEFF08B1012400E06A
:1015C0000024204638BD014600209F4A106820F0C4
:1015D000F80040EAC100106070479E4908607047FB
:1015E00002460020984B586820F47C1042EA010320
:1015F0001843954B586070479649086670470146F6
:101600000020914A506820F0030008435060704762
:101610008D48406800F00C007047014600208A4A5F
:10162000506820F0F00008435060704701460020E9
:10163000854A506820F4E0600843506070470146D6
:101640000020814A506820F4605040EAC100506098
:10165000704729B17C4A527A02437B4B5A7204E0AC
:10166000794A527A8243784B5A7270477A490860B5
:10167000704701460020744A506820F440400843F7
:10168000506070470021754A11706F4A82F820102F
:10169000012802D0042808D103E001216F4A11700B
:1016A00004E005216D4A117000E000BF00BF7047E3
:1016B0006B49086070476449096A0143624A1162D4
:1016C0007047674944390860704730B500210022EF
:1016D000002400235C4D6D6805F00C0121B1042944
:1016E00005D0082923D105E05E4D056022E05D4D5F
:1016F00005601FE0544D6D6805F47012524D6D6821
:1017000005F48034022505EB92421CB9564D554331
:1017100005600BE04C4D6D6815F4003F03D0524D51
:101720005543056002E04F4D5543056002E04D4DC5
:10173000056000BF00BF444D6D6805F0F001090968
:101740004A4D6B5C0568DD4045603F4D6D6805F4B2
:10175000E061090A454D6B5C4568DD4085603A4DA6
:101760006D6805F46051C90A404D6B5C4568DD4009
:10177000C560354D6D6805F44041890B3C4D6B5C8F
:10178000C568B5FBF3F5056130BD29B12E4A526934
:1017900002432D4B5A6104E02B4A526982432A4B83
:1017A0005A61704729B1284A92690243264B9A61CF
:1017B00004E0254A92698243234B9A61704729B11C
:1017C000214AD2690243204BDA6104E01E4AD26901
:1017D00082431D4BDA61704729B11B4AD26802432C
:1017E000194BDA6004E0184AD2688243164BDA607B
:1017F000704729B1144A12690243134B1A6104E07D
:10180000114A12698243104B1A61704714494039DA
:10181000086070470F49C86470470B49C87170472A
:101820000948406A40F080700749486270470146A5
:101830000020054A92680A4201D0012000E0002001
:101840007047014988727047001002400000FFF89D
:10185000FFFFF6FE00004242D80042422010024044
:101860008004424200127A0000093D00A8040020D2
:10187000B804002010B50446FE48844208D1012176
:10188000C014FFF7A9FF0021E014FFF7A5FFC4E093
:10189000B4F1804F08D101210846FFF7AAFF0021CB
:1018A0000120FFF7A6FFB8E0F348844208D10121E8
:1018B0000220FFF79EFF00210220FFF79AFFACE015
:1018C000EE48844208D101210420FFF792FF002155
:1018D0000420FFF78EFFA0E0E948844208D10121EF
:1018E0000820FFF786FF00210820FFF782FF94E021
:1018F000E448844208D101211020FFF77AFF00213B
:101900001020FFF776FF88E0DF48844208D10121EC
:101910002020FFF76EFF00212020FFF76AFF7CE008
:10192000DA48844208D101214014FFF755FF002115
:101930006014FFF751FF70E0D548844209D10121BE
:10194000C804FFF749FF00214FF40020FFF744FFD0
:1019500063E0D048844209D101210805FFF73CFF2C
:1019600000214FF48010FFF737FF56E0CA48844249
:1019700009D101214805FFF72FFF00214FF4001086
:10198000FFF72AFF49E0C548844208D101214020E1
:10199000FFF72FFF00214020FFF72BFF3DE0C0485D
:1019A000844208D101218020FFF723FF00218020FD
:1019B000FFF71FFF31E0BB48844208D101218015A9
:1019C000FFF717FF0021A015FFF713FF25E0B6482A
:1019D000844209D101210804FFF7FEFE00214FF4E3
:1019E0008030FFF7F9FE18E0B048844209D10121A8
:1019F0004804FFF7F1FE00214FF40030FFF7ECFE42
:101A00000BE0AB48844208D101218804FFF7E4FED3
:101A100000214FF48020FFF7DFFE10BD0022028876
:101A2000944B98420ED0994B98420BD0B0F1804F16
:101A300008D0914B984205D0904B984202D0904BE1
:101A4000984204D14FF68F731A404B881A438D4B3E
:101A5000984207D08C4B984204D04FF6FF431A406F
:101A6000CB881A4302808B8883850B880385814B42
:101A700098420BD0854B984208D08B4B984205D0AA
:101A80008A4B984202D08A4B984201D10B7A038646
:101A900001238382704770B5002400220023058C47
:101AA0004FF6FE7635400584028C8388048B4FF612
:101AB0008F752C40B51E2C400D882C43751E2A4076
:101AC0000D892A434D882A436A4DA8420BD06F4D99
:101AD000A84208D0744DA84205D0744DA84202D047
:101AE000734DA84213D14FF6F7752A404D892A430A
:101AF0004FF6FB752A408D882A434FF6FF652B4031
:101B00004FF6FF552B408D892B43CD892B43838086
:101B10000483CD888586028470BD70B500240022C0
:101B20000023058C4FF6EF7635400584028C8388C0
:101B3000048B48F6FF752C404FF6FF452C400D886E
:101B40004FF6FF7606EA05252C434FF6DF752A404F
:101B50000D8906EA05152A434D8806EA05152A432C
:101B6000444DA84202D0494DA8421DD14FF67F7581
:101B70002A404D894FF6FF7606EA05152A434FF6AF
:101B8000BF752A408D8806EA05152A434FF6FF35B2
:101B90002B404FF2FF752B408D8906EA85052B43BC
:101BA000CD8906EA85052B4383800483CD8805878C
:101BB000028470BD70B5002400220023058C4FF60E
:101BC000FF6635400584028C8388848B4FF68F75C1
:101BD0002C404FF6FC752C400D882C434FF6FF55DA
:101BE0002A400D894FF6FF7606EA05252A434D88DF
:101BF00006EA05252A431F4DA84202D0234DA842DC
:101C00001DD14FF2FF752A404D894FF6FF7606EA47
:101C100005252A434FF6FF352A408D8806EA05251B
:101C20002A434EF6FF752B404DF6FF752B408D89EC
:101C300006EA05152B43CD8906EA05152B4383805B
:101C40008483CD888587028470BD70B5002200230F
:101C50000024058C4EF6FF7635400584038C84887D
:101C6000828B48F6FF752A404FF6FF452A400D88C3
:101C700020E00000002C014000040040000800406B
:101C8000000C0040001000400014004000340140EF
:101C9000004C014000500140005401400018004039
:101CA000001C004000200040004001400044014072
:101CB000004801404FF6FF7606EA05252A434DF617
:101CC000FF752B400D8906EA05352B434D8806EA42
:101CD00005352B43FA4DA84202D0FA4DA84208D14F
:101CE0004BF6FF752C408D894FF6FF7606EA851579
:101CF0002C4384808283CD88A0F84050038470BD3B
:101D0000828B4FF2FF331A408283828B4FF6FF7330
:101D100003EA01231A4382837047F0B50C46154647
:101D2000002200210026078C4EF6FF7C07EA0C07F4
:101D30000784828B018C4FF6FF7707EA043640F662
:101D4000FF473A404FF6FF7707EA05273A434FF639
:101D5000FF7707EA03373A43D94FB8420ED0D94F3D
:101D6000B8420BD0B0F1804F08D0D74FB84205D061
:101D7000D64FB84202D0D64FB84206D14DF6FF77C3
:101D8000394046F48057394305E047F6FF5739405C
:101D900044F48057394382830184F0BD828B4FF62F
:101DA000F3731A408283828B0A4382837047F0B5B3
:101DB0000C461546002200210026078C4FF6FF6CCA
:101DC00007EA0C070784828B018C4FF6FF7707EA3E
:101DD00004264FF60C773A404FF6FF7707EA0317D1
:101DE0002F433A43B64FB8420ED0B64FB8420BD04D
:101DF000B0F1804F08D0B44FB84205D0B34FB842CD
:101E000002D0B34FB84206D14FF6FF57394046F4DF
:101E10008077394305E04FF2FF57394044F480772B
:101E2000394382830184F0BD028B4FF2FF331A40A5
:101E30000283028B4FF6FF7303EA01231A430283E6
:101E40007047F0B50C461546002200210026078C8D
:101E50004FF6EF7C07EA0C070784028B018C4FF6E4
:101E6000FF7707EA041640F6FF473A404FF6FF7740
:101E700007EA03373A434FF6FF7707EA05273A4365
:101E80008F4FB8420ED08F4FB8420BD0B0F1804F79
:101E900008D08D4FB84205D08C4FB84202D08C4F3D
:101EA000B84206D14FF6DF77394046F01007394384
:101EB00005E04FF65F77394044F01007394302835D
:101EC0000184F0BD028B4FF6F3731A400283028B3C
:101ED0000A4302837047F0B50C46154600220021E4
:101EE000068C4FF6FE773E400684028B018C4FF63F
:101EF0000C7632407E1C06EA03162E433243704EA7
:101F0000B0420ED06F4EB0420BD0B0F1804F08D02F
:101F10006D4EB04205D06D4EB04202D06C4EB04214
:101F200006D14FF6FD76314044F00106314305E01D
:101F30004FF6F576314044F00106314302830184C7
:101F4000F0BD70B505460C465D4885420ED05D4833
:101F500085420BD0B5F1804F08D05B48854205D053
:101F60005A48854202D05A48854200D100E000BF5D
:101F7000208850B92389A28861882846FFF7ABFFE3
:101F8000E1882846FFF79EFF25E0208804280AD133
:101F90002389A28861882846FFF753FFE1882846F5
:101FA000FFF742FF17E0208808280AD12389A2887A
:101FB00061882846FFF7FBFEE1882846FFF7EEFE22
:101FC00009E02389A28861882846FFF7A6FEE188F8
:101FD0002846FFF795FE70BD2DE9F04105460C46F9
:101FE00000260127608808B9022600E00026A088A4
:101FF000012801D1022700E001272088A0B9238908
:10200000A28861882846FFF766FFE1882846FFF727
:1020100059FF23893A4631462846FFF712FFE188E7
:102020002846FFF701FF13E02389A288618828462C
:10203000FFF707FFE1882846FFF7F6FE23893A46B7
:1020400031462846FFF747FFE1882846FFF73AFF69
:10205000BDE8F0810A884B881A438B881A43CB88E5
:102060001A430B891A434B891A438B891A43A0F8E8
:10207000442070474FF6FF71818000210180C180AC
:102080004180017270470021018041808180C180C0
:10209000018141818181C18170470021018041809E
:1020A000012181800021C1800181704700210180D0
:1020B00041808180C1800181418181817047000020
:1020C000002C0140003401400004004000080040A2
:1020D000000C004021B1028842F00102028004E0BD
:1020E00002884FF6FE731A400280704731B1B0F893
:1020F000442042F40042A0F8442005E0B0F8442017
:10210000C2F30E02A0F8442070471AB183890B4332
:10211000838102E083898B4383817047818270478A
:1021200041EA0203A0F8483070471AB183890B4393
:10213000838102E083898B438381704701894FF655
:10214000F8721140018170470A46002101894FF65B
:102150008F73194011430181704730B504460D4615
:1021600029462046FFF7F0FF208940F00700208134
:1021700030BD2DE9F04104460D4616461F46602D40
:1021800006D13B46012231462046FFF75AFE05E0C4
:102190003B46012231462046FFF79DFE2946204658
:1021A000FFF7D2FF208940F007002081BDE8F081D1
:1021B00030B50C4600210189C9B24FF6FF7505EA1A
:1021C0000325154325432943018130BD2DE9F04105
:1021D00005460E4617469846002443463A46314681
:1021E0002846FFF7E5FF2C894FF6F870044044F0CD
:1021F00007044FF68F70044044F070042C81BDE852
:10220000F081F0B504460D4616461F463B46324661
:1022100029462046FFF7CCFF208940F480402081EA
:10222000F0BD0185828270470A46002101884FF681
:102230008F731940114301807047F0B50C46154665
:102240001E460021002200230189028B038C4FF6D9
:10225000F877394021434FF6FC473A4040F20117E6
:102260003A434FF6DD773B404FF6FF7707EA061714
:102270002F433B43018102830384F0BD0A460021C2
:10228000018B4FF68F7319401143018370470A4643
:102290000021018B48F6FF7319404FF6FF7303EAE4
:1022A00002231943018370470A460021818B4FF6B0
:1022B0008F7319401143818370470A460021818B37
:1022C00048F6FF7319404FF6FF7303EA02231943E0
:1022D0008183704721B1028842F08002028004E0CD
:1022E00002884FF67F731A400280704721B18288BE
:1022F00042F00402828004E082884FF6FB731A40A9
:102300008280704721B1828842F00802828004E016
:1023100082884FF6F7731A408280704721B1828815
:1023200042F00102828004E082884FF6FE731A4078
:10233000828070470A460021018B4FF6F7731940DF
:102340001143018370470A460021018B4FF2FF734E
:1023500019404FF6FF7303EA0223194301837047C4
:102360000A460021818B4FF6F77319401143818390
:1023700070470A460021818B4FF2FF7319404FF6D8
:10238000FF7303EA02231943818370470A46002141
:10239000018B4FF6FB7319401143018370470A46C6
:1023A0000021018B4FF6FF3319404FF6FF7303EA0C
:1023B00002231943018370470A460021818B4FF69F
:1023C000FB7319401143818370470A460021818BBA
:1023D0004FF6FF3319404FF6FF7303EA0223194308
:1023E000818370470A460021018B4FF67F731940A5
:1023F0001143018370470A460021018BC1F30E018E
:102400004FF6FF7303EA02231943018370470A461C
:102410000021818B4FF67F731940114381837047F0
:102420000A460021818BC1F30E014FF6FF7303EAC8
:1024300002231943818370470A460021018C4FF61D
:10244000FD7319401143018470470A460021018C35
:102450004FF6F77319401143018470470A46002173
:10246000018C4FF6DF7319404FF6FF7303EA021336
:102470001943018470470A460021018C4FF67F738F
:1024800019404FF6FF7303EA0213194301847047A2
:102490000A460021018C4FF6FF5319404FF6FF7397
:1024A00003EA02231943018470470A460021018C84
:1024B0004FF2FF7319404FF6FF7303EA02231943EB
:1024C000018470470A460021018C4DF6FF731940C4
:1024D0004FF6FF7303EA023319430184704730B5A6
:1024E000002301248C40A3B2048C9C430484048CFC
:1024F00002FA01F5ADB22C43048430BD30B500239F
:1025000004248C40A3B2048C9C430484048C02FAFF
:1025100001F5ADB22C43048430BD70B503460020F4
:1025200000241846183001258D40ACB21D8CA543FF
:102530001D8409B1082909D100EB6100056825F067
:10254000700505600568154305600EE00D1FC5F3B5
:102550004E052844056825F4E045056005684FF6FA
:10256000FF7606EA02263543056070BD21B1028878
:1025700042F00202028004E002884FF6FD731A4026
:102580000280704721B1028842F00402028004E018
:1025900002884FF6FB731A400280704721B182888F
:1025A00042F08002828004E082884FF67F731A40F6
:1025B0008280704702884FF6F7731A4002800288C3
:1025C0000A430280704782884FF68F731A408280D8
:1025D00082880A438280704702894FF6F8731A4056
:1025E000028102890A430281704702894FF67F7394
:1025F0001A40028102890A43028170478184704730
:102600008185704781867047018770478187704751
:10261000A0F84010704702884FF6FF431A4002802E
:1026200002880A43028070470146888E704701463F
:10263000088F70470146888F70470146B1F8400007
:1026400070470146888C70470146088D70470246E6
:102650000020138A0B4201D0012000E000207047C7
:10266000CA430282704730B502460020002300248E
:10267000158A05EA0103958905EA010413B10CB135
:10268000012000E0002030BDCA43028270470000F4
:1026900010B58CB004461E230BAA03A9204600F0F7
:1026A000A9FE0090009810B101200CB010BD9DF85B
:1026B0002C00044400200B900EE040489DF82C2094
:1026C00050F8221003A800F0FDFD00B908E09DF8C5
:1026D0002C00401CC0B20B909DF82C000728ECD3B6
:1026E00000BF9DF82C00072863D2DFE800F0040546
:1026F0003C5E6564630000BF31A001F079F831A051
:1027000001F076F83FA001F073F84EA001F070F8E8
:102710005CA001F06DF86BA001F06AF879A001F0FF
:1027200067F886A001F064F88BA001F061F890A032
:1027300001F05EF894A001F05BF899A001F058F860
:102740009EA001F055F8A4A001F052F8B0A001F04D
:102750004FF8BDA001F04CF8C8A001F049F8D4A092
:1027600001F046F89AE216A001F042F8E0A001F06C
:102770003FF800200B900EE0ED4800689DF82C20FB
:1027800000EBC2004168EBA001F032F89DF82C008C
:10279000401CC0B20B90E648007D9DF82C1088428A
:1027A000EADC07A001F024F878E205A001F020F8A7
:1027B000C4E171E245E219E2ECE10000BC04002052
:1027C0000D0A00002D2D2D2D2D2D2D2D2D2D2D2DD6
:1027D0002D2D2D2D2D2D2D2D2D2D2D2D55534D41A7
:1027E00052542056332E312D2D2D2D2D2D2D2D2DA6
:1027F0002D2D2D2D2D2D2D2D2D2D2D2D2D2D2D2016
:102800000D0A00002020202055534D415254CAC7C4
:10281000D3C9414C49454E54454BBFAAB7A2B5C494
:10282000D2BBB8F6C1E9C7C9B5C4B4AEBFDAB5F713
:10283000CAD4BBA5BDBBD7E9BCFE2CCDA8B9FD2031
:102840000D0A0000CBFC2CC4E3BFC9D2D4CDA8B97B
:10285000FDB4AEBFDAD6FACAD6B5F7D3C3B3CCD07F
:10286000F2C0EFC3E6B5C4C8CEBACEBAAFCAFD2C2B
:10287000B2A2D6B4D0D02ED2F2B4CB2CC4E3BFC90E
:102880000D0A0000D2D4CBE6D2E2B8FCB8C4BAAF8D
:10289000CAFDB5C4CAE4C8EBB2CECAFD28D6A7B3F8
:1028A000D6CAFDD7D62831302F3136BDF8D6C62945
:1028B000A1A2D7D6B7FBB4AEA1A2BAAFCAFDC8EBEE
:1028C0000D0A0000BFDAB5D8D6B7B5C8D7F7CEAA7B
:1028D000B2CECAFD292CB5A5B8F6BAAFCAFDD7EE5F
:1028E000B6E0D6A7B3D63130B8F6CAE4C8EBB2CE5C
:1028F000CAFD2CB2A2D6A7B3D6BAAFCAFDB7B520CF
:102900000D0A0000BBD8D6B5CFD4CABE2ED0C2D4D3
:10291000F6B2CECAFDCFD4CABEBDF8D6C6C9E8D677
:10292000C3B9A6C4DC2CD0C2D4F6BDF8D6C6D7AA8B
:10293000BBBBB9A6C4DC2E0D0A000000BCBCCAF5A6
:10294000D6A7B3D63A7777772E6F70656E656476C3
:102950002E636F6D0D0A000055534D415254D3D074
:1029600037B8F6CFB5CDB3C3FCC1EE3A0D0A0000BF
:102970003F3A202020202020BBF1C8A1B0EFD6FA9A
:10298000D0C5CFA20D0A000068656C703A202020E7
:10299000BBF1C8A1B0EFD6FAD0C5CFA20D0A000096
:1029A0006C6973743A202020BFC9D3C3B5C4BAAFD1
:1029B000CAFDC1D0B1ED0D0A0A00000069643A20D9
:1029C00020202020BFC9D3C3BAAFCAFDB5C4494433
:1029D000C1D0B1ED0D0A0A006865783A20202020A8
:1029E000B2CECAFD3136BDF8D6C6CFD4CABE2CBAD7
:1029F000F3B8FABFD5B8F12BCAFDD7D6BCB4D6B45C
:102A0000D0D0BDF8D6C6D7AABBBB0D0A0A000000BD
:102A10006465633A20202020B2CECAFD3130BDF873
:102A2000D6C6CFD4CABE2CBAF3B8FABFD5B8F12BEC
:102A3000CAFDD7D6BCB4D6B4D0D0BDF8D6C6D7AAB6
:102A4000BBBB0D0A0A00000072756E74696D653AB1
:102A5000312CBFAAC6F4BAAFCAFDD4CBD0D0BCC605
:102A6000CAB13B302CB9D8B1D5BAAFCAFDD4CBD09E
:102A7000D0BCC6CAB13B0D0A0A000000C7EBB0B417
:102A8000D5D5B3CCD0F2B1E0D0B4B8F1CABDCAE468
:102A9000C8EBBAAFCAFDC3FBBCB0B2CECAFDB2A28E
:102AA000D2D4BBD8B3B5BCFCBDE1CAF82E0D0A0028
:102AB0002D2D2D2D2D2D2D2D2D2D2D2D2D2D2D2D46
:102AC0002D2D2D2D2D2D2D2D2D2D414C49454E5487
:102AD000454B2D2D2D2D2D2D2D2D2D2D2D2D2D2DF0
:102AE0002D2D2D2D2D2D2D2D2D2D2D200D0A0000C0
:102AF0002D2D2D2D2D2D2D2D2D2D2D2D2D2D2D2D06
:102B00002D2D2D2D2D2D2D2D2DBAAFCAFDC7E5B59F
:102B1000A52D2D2D2D2D2D2D2D2D2D2D2D2D2D2D6D
:102B20002D2D2D2D2D2D2D2D2D2D2D2D200D0A0052
:102B30000005002025730D0A00000000EFA000F042
:102B400057FE00200B901AE0FC4909689DF82C20E4
:102B500001EBC20101AB02AA486803A900F070FCB6
:102B6000F64800689DF82C1050F8312003A9F4A015
:102B700000F03EFE9DF82C00401CC0B20B90EF48C8
:102B8000007D9DF82C108842DEDCAFF2CC3000F0E6
:102B90002FFE83E0AFF2D83000F02AFE0BAA03A983
:102BA000204600F029FD9DF82C00C8B9694603A80D
:102BB00000F0BBFB0B909DF82C0020B9E5A000991C
:102BC00000F016FE0EE09DF82C00042801D0022033
:102BD0006BE5E3A000F00CFE0120D849C87501E0C8
:102BE000022062E5DDA000F003FE57E0DBA000F06C
:102BF000FFFD0BAA03A9204600F0FEFC9DF82C0067
:102C0000C8B9694603A800F090FB0B909DF82C0012
:102C100020B9D8A0009900F0EBFD0EE09DF82C0043
:102C2000042801D0022040E5D5A000F0E1FD0020FD
:102C3000C249C87501E0022037E5C8A000F0D8FD00
:102C40002CE0C6A000F0D4FD0BAA03A9204600F09A
:102C5000D3FC9DF82C00C8B9694603A800F065FBB9
:102C60000B909DF82C0078B9B449009881F8EC00DD
:102C7000084690F8EC0018B1C6A000F0B9FD07E0D6
:102C8000CBA000F0B5FD03E002200EE502200CE52C
:102C9000B2A000F0ADFD01E0012006E500BF00207C
:102CA00003E54FF08040008A20F001004FF08041A2
:102CB00008824FF6FF708885002088849F49C1F8FC
:102CC000F00070474FF08040008A10F0010F08D0EC
:102CD0009A48D0F8F0004FF6FF7108449749C1F8C0
:102CE000F0009648D0F8F0004FF08041898C0844FD
:102CF0009249C1F8F0000846D0F8F000704710B5CE
:102D00004FF08040008A10F0010F09D08B4908690C
:102D1000804700204FF0804188844FF47A70888586
:102D20004FF08040008A20F001004FF0804108827F
:102D300010BD7FB505460C4601210846FEF73FFD54
:102D4000ADF80850ADF804400020ADF80A00ADF829
:102D5000060001A94FF08040FEF760FE01224121EC
:102D60008807FFF7D2F91C208DF8000003208DF8AA
:102D700001008DF8020001208DF803006846FDF780
:102D8000C8FE01218807FFF7A5F97FBD10B50446ED
:102D900004EBC40000EB04100122C2EB800081B2FE
:102DA0004FF47A70FFF7C5FF01206449C87510BD64
:102DB00030B595B0054613AB12AA09A9284600F014
:102DC0003FFB044614B1204615B030BD00201490DE
:102DD00026E05A4909689DF8502001EBC20113AB67
:102DE00011AA486801A900F02BFB04460CB120464B
:102DF000EAE709A901A800F065FA60B99DF8440066
:102E00009DF84810884201DD0220DDE79DF8500062
:102E10004A4988750AE09DF85000401CC0B21490E1
:102E20004648007D9DF850108842D2DC00BF4348E0
:102E3000007D9DF85010884201D10420C4E714A9F8
:102E4000284600F04AFC04460CB12046BCE79DF839
:102E500050003A4948750020B6E72DE9F0419AB094
:102E60003648847D007DA04202DC1AB0BDE8F081C6
:102E70003249096801EBC40106AB07AA486808A9F2
:102E800000F0DEFA08A951A000F0B2FC0026B7E07D
:102E90002A48018B0120B04001421BD022214DA0C5
:102EA00000F0A6FC304600F00BFC24492431471802
:102EB000394649A000F09CFC222146A000F098FC75
:102EC000304600F0FDFB1D492431084410A941F8AB
:102ED00026008BE0304600F0F3FB184924310858F7
:102EE00010A941F826001548C07D30B910A850F847
:102EF00026103AA000F07CFC78E071E02D2D2D2DFD
:102F00002D2D2D2D2D2D2D2D2D2D2D2D2D2D2D2DF1
:102F10002D2D2D2D2DBAAFCAFD204944202D2D2D4C
:102F20002D2D2D2D2D2D2D2D2D2D2D2D2D2D2D2DD1
:102F30002D2D2D2D2D2D2D2D200D0A0000050020CD
:102F400025732069642069733A0D0A30582530389A
:102F5000580D0A004845583A305825580D0A0000C7
:102F60003136BDF8D6C6B2CECAFDCFD4CABE210D09
:102F70000A0000004445433A256C750D0A00000024
:102F80003130BDF8D6C6B2CECAFDCFD4CABE210DEF
:102F90000A00000052756E2054696D652043616C13
:102FA00063756C6174696F6E204F4E0D0A000000EE
:102FB00052756E2054696D652043616C63756C6158
:102FC00074696F6E204F46460D0A00000D0A257386
:102FD000280000002563000025730000256C7500A3
:102FE00010A850F8261095A000F002FC9DF81C00D7
:102FF000401EB04202D093A000F0FAFB701CC6B293
:103000009DF81C008642FFF643AF8FA000F0F0FB56
:10301000FFF747FE8D48407D0B280DD2DFE800F01A
:10302000060D151E27323F4E5F72870087490968DB
:1030300051F834008047054690E0844A126852F8FF
:10304000341010988847054688E0804B1B6853F879
:103050003420DDE91001904705467FE07B4F3F6853
:1030600057F8343010A807C89847054676E0DFF8CF
:10307000DCC1DCF800C05CF8347010A80FC8B84799
:1030800005466BE01498DFF8C4C10090DCF800C07E
:103090005CF8347010A80FC8B84705465EE0DDE95B
:1030A0001401DFF8A8C1CDE90001DCF800C05CF82C
:1030B000347010A80FC8B84705464FE0DDE9141278
:1030C0001698DFF888C1CDE900120290DCF800C044
:1030D0005CF8347010A80FC8B84705463EE0DDE93B
:1030E0001423DDE91610DFF864C1CDE90023CDE932
:1030F0000210DCF800C05CF8347010A80FC8B847A4
:1031000005462BE0DDE91523DDE91710CDE90123A4
:10311000CDE903101498DFF834C10090DCF800C04A
:103120005CF8347010A80FC8B847054616E0DDE912
:10313000173216991998CDE9033202910590DDE90D
:103140001401DFF808C1CDE90001DCF800C05CF82B
:10315000347010A80FC8B847054600BF00BFFFF77E
:10316000B1FD9DF8180001280CD13848C07D20B968
:10317000294637A000F03CFB07E0294636A000F0C6
:1031800037FB02E033A000F033FB304890F8EC004E
:1031900088B12E48D0F8F0000A21B0FBF1F201FB13
:1031A00012072A48D0F8F000B0FBF1F83A46414641
:1031B0002CA000F01DFB00BF57E670B53148008819
:1031C00010F4004F33D02F48057800202E49485581
:1031D0001E4881682C48884704461CB91B49C868AA
:1031E000804721E02848FFF753FA0546012D00D01B
:1031F0002C46CCB1012C06D0022C08D0032C0AD0CE
:10320000042C10D10BE021A000F0F2FA0BE022A078
:1032100000F0EEFA07E023A000F0EAFA03E024A0B1
:1032200000F0E6FA00BF00BF00201649088070BD1C
:103230000146086870470160704700003058255803
:10324000000000002C000000290000000005002004
:103250003D256C753B0D0A003D305825583B0D0A45
:103260000000000046756E6374696F6E2052756EC3
:103270002054696D653A25642E2531646D730D0AFD
:1032800000000000A0040020F4050020BAAFCAFD31
:10329000B4EDCEF3210D0A00B2CECAFDB4EDCEF3EB
:1032A000210D0A00B2CECAFDCCABB6E0210D0A005A
:1032B000CEB4D5D2B5BDC6A5C5E4B5C4BAAFCAFDB6
:1032C000210D0A0002460AE010780B78984201D0DE
:1032D00001207047107800B902E0521C491CF3E746
:1032E00000BF0020F5E706E002780A70027802B914
:1032F00002E0401C491CF7E700BF70470146002070
:1033000005E00A7802B903E0421CD0B2491CF8E794
:1033100000BF704710B50246012000E050430B008B
:10332000A1F10104E1B2F9D110BD2DE9F043074646
:103330000E4600254FF00A083C46002030601FE092
:103340002078392802DC207830280ADA20784628CC
:1033500002DC2078412804DA2078582809D1012D90
:1033600007D12078412801DB4FF01008681CC5B256
:1033700005E0207800B904E00120BDE8F083641C7A
:10338000DEE700BF3C46B8F1100F0FD1032D01DA84
:103390000220F2E72078302806D16078582803D13F
:1033A000A41CA81EC5B204E00320E6E70DB9042062
:1033B000E3E71BE00DB1681EC5B22078392806DCB2
:1033C0002078302803DB2078A0F1300902E0207853
:1033D000A0F1370929464046FFF79CFF316809FBF9
:1033E00000103060641C207800B900E0E2E700BF04
:1033F0000020C2E710B50446002010700BE02078D2
:103400000870641C491C1078401C10701078984299
:1034100001DB012010BD2078202802D02078002870
:10342000EDD10020087000BFF4E70146491C00E020
:10343000491C0878202801D10029F9D10878704763
:103440002DE9FF4F85B08046894600270020049073
:103450000390012002904FF0000B002544461DE030
:103460002078202816D005F07F00052812DA0DB943
:1034700045F0800505F07F00042803D120782A2834
:1034800000D00EE0207805F07F010DF80100681CE7
:10349000C5B202E0852D00D103E0641C207800282D
:1034A000DED100BF8DB1002005F07F010DF80100D5
:1034B000CBA16846FFF706FF18B9002108980170F4
:1034C00002E001210898017000254FF0000A4446EF
:1034D00014E0641C0AF1010000F0FF0A20782028A3
:1034E00002D020782A2809D12046FFF79EFF064601
:1034F000282E03D02A2E01D0CDF810A0207828281D
:1035000002D020780028E4D14446049810B10498F1
:10351000401C04444FF0000A002654E0207810B903
:103520004FF0010A50E02078282803D116B9781C02
:10353000C7B213E02078292808D13EB917B1781E08
:10354000C7B201E04FF0010A47B93DE020782228D8
:1035500004D10EB9012000E00020064647B92078CA
:1035600020282FD0207889F8000009F1010929E0EE
:1035700020782C2804D101200290681CC5B214E0E8
:103580002078202811D0207828280ED04DB9BBF102
:10359000050F06DA20780DF80B000BF1010000F0A2
:1035A000FF0B0298401CC0B20290012F0AD1029872
:1035B000022807D10298401CC0B202900398401C18
:1035C000C0B20390641CA9E700BF0398012809D189
:1035D00000200DF80B0082A16846FFF773FE08B9C2
:1035E00000200390079903980870002089F80000D4
:1035F000504609B0BDE8F08FF0B5034615460020EF
:1036000000220026002455E01F782C2F01D104B998
:1036100001221F78292F01D01F780FB904B94AE081
:10362000002E34D11F78302F02DB1F78392F11DDA7
:103630001F78612F02DB1F78662F0BDD1F78412F6B
:1036400002DB1F78462F05DD1F78582F02D01F7828
:10365000782F0CD102B12EE01F78612F03DB1F7889
:10366000203F0F7001E01F780F70491C1FE01F788A
:10367000222F04D102B11EE00126012417E01F7899
:10368000202F14D01F782C2F11D0FF2613E01F7885
:10369000222F00D1002402B10DE044B11F785C2F2D
:1036A00002D15B1C471CF8B21F780F70491C471CE5
:1036B000F8B25B1CA8E700BF00270F702E70F0BDAA
:1036C00002460020002105E0474B5B5C0344D8B272
:1036D0004B1CD9B29142F7DB70472DE9F043B5B0EE
:1036E00005460F460024002604E000213E4881558F
:1036F000701CC6B20A2EF8DB06E06D1C287818B9DB
:10370000012035B0BDE8F08328782828F5D16D1C5C
:1037100061E034AA69462846FFF76EFF0646354445
:103720009DF8D00020B1012827D0FF284CD149E0D6
:103730009DF8000000B333A96846FFF7F6FD064682
:103740000EB10220DDE72046FFF7BAFF26490A3115
:10375000339A0A50A1F12400008B0121A140884333
:1037600021491A39088304211F480155601CC4B23D
:103770000A2C01DD0320C4E726E06846FFF7BEFD02
:10378000401C00F0FF082046FFF79AFF16490A3157
:1037900000EB010949466846FFF7A5FD12481A38B3
:1037A000018B0120A040014388B20F491A390883D8
:1037B0000D4800F80480601CC4B20A2C01DD03200F
:1037C0009FE701E002209CE700BF2878292801D06C
:1037D000287800B900E09CE700BF3C70002090E72B
:1037E000766F6964000000001A0500207047000031
:1037F0000FB4044910B503AA029800F025FA10BCD2
:103800005DF814FBA404002070B5044685690068C7
:10381000C10601D5302600E02026C00708D070BDC3
:10382000D4E9012130469047206A00F1010020626E
:103830006D1EF5D570BD70B5044685690078C0076A
:1038400008D170BDD4E9012120209047206A00F101
:10385000010020626D1EF5D570BD70B50C460546A1
:10386000012A05D02878800600D5EA69002302E005
:10387000012305E05B1C934202D2E05C0028F9D1F1
:10388000A869E618C01AA861286A18442862284660
:10389000FFF7BAFF04E0D5E9012114F8010B9047C6
:1038A000B442F8D32846FFF7C6FF70BD2DE9F041BA
:1038B0000646002410687529314616A511D0AFF3CD
:1038C0000080002803DAC0F1000013A507E031688A
:1038D0008A0701D511A502E0490704D510A50124E6
:1038E00001E0AFF3008000210A2306F1240707E07E
:1038F000B0FBF3F203FB1200303078541046491C41
:103900000028F5D123462A463046BDE8F04100F0B4
:1039100028B90000000000002D0000002B0000006E
:103920002000000070B504460D4621461068AFF334
:1039300000802188090502D5104A7A4402E00F4A26
:103940007A440E32002104F1240307E000F00F0650
:103950004FEA1010965D5E5401F101010028F5D187
:1039600003462078000704D5702D02D009B111322A
:1039700002232046BDE8704000F0F3B8D60B0000EB
:103980002DE9F05F894604464FF0000ADFF878B170
:10399000FB44C0F820A02046E1688847002875D085
:1039A000252806D0D4E901219047206A401C2062D6
:1039B000F1E700265F462046E16888472028054653
:1039C00008DB312D06D207EB050010F8200C08B1FA
:1039D0000643F0E7B00701D526F00406C4F81CA0A2
:1039E0000027C4F818A02A2D09D0284600F08AF92B
:1039F00038B304EB8708303DC8F8185019E059F87F
:103A0000041B204604EB87029161E1688847012F7F
:103A1000054618D1E069002820DA26F020061DE0CE
:103A2000D8F8180000EB800005EB40003038C8F8EB
:103A300018002046E1688847054600F063F9002831
:103A4000EED1012F0AD02E2D08D12046E1688847FB
:103A50007F1C0546022F46F02006C4DBA069002823
:103A600003DA404246F00106A061F00701D026F0DB
:103A700010066C2D0BD0682D09D04C2D39D06A2D35
:103A800035D0742D35D07A2D33D016E038E0E1688A
:103A90002F4620468847B842054609D16C2F26D0CC
:103AA0004FF48060E168064320468847054604E0FD
:103AB0006C2F1AD04FF4807006430DB3A5F141006E
:103AC000192802D8203546F400664A462946204681
:103AD00026604E46FCF786FB80B101280BD0F61D10
:103AE00026F0070000F1080955E74020E4E78020B0
:103AF000D8E70020D6E706F104094CE7284651E74D
:103B0000206ABDE8F09F0000A80B00004FF0000203
:103B100000B5134694469646203922BFA0E80C50C3
:103B2000A0E80C50B1F12001BFF4F7AF090728BF9E
:103B3000A0E80C5048BF0CC05DF804EB890028BF1A
:103B400040F8042B08BF704748BF20F8022B11F043
:103B5000804F18BF00F8012B7047704770477047BF
:103B600070472DE9F0470D4699469246044600F10C
:103B700024080168880604D5E06921F0100121605D
:103B800000E00120A84202DDA0EB050700E00027CD
:103B9000A16907EB050202EB0900A1EB0000A0619F
:103BA0002078C00602D42046FFF72EFE002608E04B
:103BB000D4E901211AF806009047206A401C761CBF
:103BC00020624E45F4DB2078C0060AD52046FFF778
:103BD0001BFE06E0D4E9012130209047206A401CFA
:103BE0002062381EA7F10107F4DC07E0D4E90121C7
:103BF00018F805009047206A401C2062281EA5F195
:103C00000105F3DC2046FFF716FE2078000602D5FA
:103C10000220BDE8F0870120FBE710B5436913B12E
:103C2000AFF3008001E0FFF718FE012010BD12780D
:103C300000F124010A7000224A700122EDE71168A8
:103C40004FF0FF32E9E70000074B70B50D467B44AB
:103C500000F011F80446284600F020F810B14FF0AB
:103C6000FF3070BD204670BD39CDFFFF01694A1C91
:103C700002610878704700B58FB0CDE901310021AD
:103C8000059105497944CDE9031011466846FFF7CF
:103C900077FE0FB000BD0000E5FFFFFF007B00F0E6
:103CA00080007047754600F029F8AE460500694669
:103CB000534620F00700854618B020B5FCF712FFE8
:103CC000BDE820404FF000064FF000074FF000081D
:103CD0004FF0000B21F00701AC46ACE8C009ACE89E
:103CE000C009ACE8C009ACE8C0098D46704704467D
:103CF000AFF300802046FCF793FA000000487047BD
:103D0000BC06002030380A2801D20120704700206C
:103D10007047000021F00042A2F16052B2F5801F0E
:103D200001F0004328BFD2F17F6C0BD95FEA001C81
:103D300043EAC20242EB507018BF704728BF20F020
:103D400001007047B2F5801FBCBF184670474FEAAC
:103D5000410C1CF5001F02D2084600F0D6BB70B51E
:103D600000F062F900000089FFF7F6BF4FF0004055
:103D7000A0F58000704700002DE9C04130B4DFF8A5
:103D8000A0C23CEA111418BF3CEA131400F0EC8006
:103D900081EA03051CEA111444EAD57418BF1CEA31
:103DA000131500F0C780A4EB05044FF0004545EA69
:103DB000C12145EAC32341EA505143EA525304F179
:103DC0007F74994204F500344FEAC0204FEAC222C2
:103DD00008BF904200F09C804FEA13650FF2401636
:103DE000765D4FEA134506FB05F7C7F1807706FBC2
:103DF00007F74FEAD737A7FB03687642C8F5803844
:103E0000A7FB06CE38BFA8F1010807FB08E64FF074
:103E1000000EA6FB028CE6FB03CEDCF1000CCEF11B
:103E2000004E38BFAEF1010EA6FB0C584FF0000754
:103E30004FF00005E6FB0E87A1FB08C6A0FB07CEEE
:103E400016EB0E0645F10005E1FB076515F1E04EA6
:103E50007EBFA4F580345FEA46066D4116F1800707
:103E600045F100054FEA17274FEA066647EA05675E
:103E7000A6F1DE46B6F1805F4FEA15251FD9384618
:103E800024F0010C05EBC471BCF1FE6F01EB0C11C9
:103E900002D8F0BCBDE8008124425CBF01F5801E61
:103EA0009EEAC47F02D4F0BCBDE80081244238D42D
:103EB000F0BCA1F1C041BDE8004100F003B94FEAF8
:103EC000D22242EA43524FEAD323A7FB02864FEAAB
:103ED000D02040EA415007FB03661EEA0E0F4FEA6E
:103EE000D12105FB026658BFA6EB0056B6EB005683
:103EF0004FEA520E4EEAC37E18EB0E0E56EB530EEF
:103F0000BDD518EB02085E417F1C55F10005B6E7F0
:103F10004FF480154FF000074FF000064FF00008F7
:103F2000ADE7F0BC4FF0000001F1C04101F00041ED
:103F3000BDE8008111EA0C1F0CEA131500D00CE05B
:103F400013EA0C1F00F025804FF00000F0BC81EA5E
:103F5000030101F00041BDE80081F0BCBDE8004173
:103F600081EA030100F0AEB8F0BCBDE8004170B5D5
:103F700000F05AF8097EFC3E00F007B881EA030120
:103F80004FF0000001F00041704781EA030100F0AA
:103F900099B8F0BCBDE800414FF0000021497047DE
:103FA000FFFDFBF9F7F5F4F2F0EEEDEBE9E8E6E4FE
:103FB000E3E1E0DEDDDBDAD8D7D5D4D3D1D0CFCD85
:103FC000CCCBCAC8C7C6C5C4C2C1C0BFBEBDBCBBBE
:103FD000BAB9B8B7B6B5B4B3B2B1B0AFAEADACABB9
:103FE000AAA9A8A8A7A6A5A4A3A3A2A1A09F9F9E93
:103FF0009D9C9C9B9A999998979796959594939345
:10400000929191908F8F8E8E8D8C8C8B8B8A8989DB
:10401000888887878685858484838382828181805E
:104020000000FF070000F87F0EF1020E2EF0030ED5
:104030005EF8046B364205D4012A43EB030515F5FF
:10404000001F12D8012841EB010C1CF5001F0CD8F1
:104050000ED14FEAD17C15F5001F0CEB4C0C0CF186
:10406000020C08BF4CEBD37C04E04FF0080C01E0DD
:104070004FEAD37C0CEB4C0526FA05F606F0070652
:10408000B6F1040C06D20EEB860CBDE870404CF085
:10409000010C6047DFE80CF0090B02024FF0004111
:1040A0004FF00000A1F5002170BD1946104601280F
:1040B00051EB010418BFD4F5001484BF002001F0B7
:1040C000004170BD0808A0F500114FEA31017047AA
:1040D00043004FEAD30C4FEA3C0C43401FBF40075C
:1040E0000CF1605113F0FE4F70471CF0006F03D1CC
:1040F00000200CF0004170470CF0004343EA507080
:1041000010B540EACC0000F0BAF900BF0000009200
:104110004FEA0001FFF7D6BF4FF000414FF000001B
:10412000A1F50021704700004FF47F0C1CEAD0126B
:104130001EBF1CEAD11392EA0C0F93EA0C0F00F099
:10414000858090EA010F48BF42F4807240F4000C71
:1041500041F400002CF07F4120F07F4000B5814207
:10416000A2EB03020FF2081CACEB504EC0F10000B2
:104170009EF800E04FEA4E0E00FB0EFC38BF4900EF
:104180004FEA2C1C02F5FA020CFB0EF34FEACE1E8E
:104190004FEA112C4FEAC1210EEB635E42EB224243
:1041A0000EFB0CFC4FEA1C5300FB03114FEA112CD1
:1041B0004FEA01310EFB0CFC4FEADC4C00FB0C110A
:1041C000C14228BF09184CEB03335DF804EB10EB38
:1041D000410143EBC250B2F57C0F38BF704729D57F
:1041E00012F0F00F1CBF00F1C04000F0004070471B
:1041F000008182838485868788898B8C8D8E8F91C0
:104200009293959697999A9C9D9FA0A2A3A5A7A8E3
:10421000AAACAEB0B2B3B5B7B9BCBEC0C2C5C7C90F
:10422000CCCED1D4D7D9DCDFE2E6E9ECF0F3F7FA73
:10423000FE0000004FEA400C0CF1807CBCF17E4F88
:1042400028BF7047B0F1C04000F05FB990EA010F9D
:104250000CEAD11348BF42F48072624538BF63450F
:1042600007D213F47F0F16D080EA010000F000405F
:10427000704710B500F003F9097EFC3E00F005B868
:1042800080EA010000F00040704780EA010000F081
:10429000004000F03AB912F47F0F04BF02487047A3
:1042A00080EA010000F031B90000C07F41000B0E30
:1042B000D3F19E0208D950F400034FEA032323FAF6
:1042C00002F048BF4042704710B500F0D8F800BF78
:1042D00049922480002070476FF0004282EA20005B
:1042E00070470000C10DD1F19E0206DB4FEA0023AA
:1042F00043F0004323FA02F07047004207D54FEA2B
:104300004001B1F1FE4F02D24FF00000704710B5EE
:1043100000F0B5F849922480002070476FEA200031
:104320007047000010F0004148BF4042B0FA80F3EF
:1043300010FA03F2C3F19D030BD051EAC35101EB14
:104340001220530638BF704700F1010008BF20F06B
:1043500001007047B0FA80F310FA03F2C3F19D0335
:104360000AD0D90501EB1220530638BF704700F17F
:10437000010008BF20F00100704700004FF47F0CDF
:104380001CEAD0121EBF1CEAD11392EA0C0F93EA6A
:104390000C0F00F0478090EA010F48BF42F4807292
:1043A0004FF0004C4CEA00204CEA012102EB0302E2
:1043B000A0FB0113A2F50002002918BF43F001037E
:1043C0005B0028BF4FEA330342EB22425FEA132C23
:1043D0004CEBC2502EBFBCEB436FB2F57C0F704765
:1043E0004FEA036CBCF1004F08BF20F00100B2F5AA
:1043F0007C0F38BF70470BD582F0FF0212F5803F6B
:10440000C8BF704700F1C040D8BF00F000407047FF
:1044100000F5000C5FEA4C0C48BF7047B0F1C0409B
:1044200000F073B890EA010F0CEAD11348BF42F4D0
:104430008072624538BF634504D280EA010000F013
:104440000040704710B500F01AF800BF8900013E27
:1044500000F007B800F009B85FEA410C5FEA1C6C95
:1044600008D080EA010000F050B85FEA400C5FEA33
:104470001C6CF6D14FF00040A0F5800070470EF1A3
:10448000020E2EF0030E5EF8044B244204D44FEAD1
:104490004102B2F17F4F11D84FEA4003B3F17F4F91
:1044A0000CD80ED14FEAD07CB2F17F4F0CEB4C0C04
:1044B0000CF1020C08BF4CEBD17C04E04FF0080C6F
:1044C00001E04FEAD17C0CEB4C0324FA03F404F036
:1044D0000704B4F1040C06D20EEB840CBDE81040C6
:1044E0004CF0010C6047DFE80CF0070802024FF0C7
:1044F0000040A0F5800010BD0846420018BFD2F170
:10450000807288BF00F0004010BDFF2141EAD0500A
:10451000C00570473031323334353637383941428F
:104520004344454640305800303132333435363715
:1045300038396162636465664030780004000008C1
:10454000000000000000000200010000103F0064B5
:1045500065630069640072756E74696D65006865F5
:104560006C70006C6973740068657800766F6964BC
:104570002077726974655F616464722875333220D4
:10458000616464722C7533322076616C2900766F19
:10459000696420446163315F5365745F566F6C28B2
:1045A00075313620766F6C29007533322072656163
:1045B000645F6164647228753332206164647229B7
:1045C00000766F69642064656C61795F6D7328752E
:1045D0003136206E6D732900766F69642064656CD6
:1045E00061795F757328753332206E757329000009
:1045F0001046000800000020F40500006C010008CF
:10460000D4490008F40500202C070000C801000868
:104610001184A24A04280A010203040607080901BA
:104620000C22081A1C041A37041A52041A6D041AB0
:1046300088041AA3041ABE041AD9041AF404230E17
:10464000091A29041A43041A5D041A77041A9104FA
:104650001AAB041AC4041ADD041AF604230F0A1A4A
:1046600028041A40041A58041A6F041A87041A9E60
:10467000041AB5041ACB041AE1041AF704230C0B2C
:104680001A21041A36041A4A041A5E041A71041A0A
:1046900084041A96041AA9041ABA041ACB041ADC60
:1046A000041AEC041AFC04230B0C1A1A041A28042A
:1046B0001A36041A43041A50041A5C041A68041ABD
:1046C00073041A7E041A88041A91041A9A041AA20E
:1046D000041AAA041AB1041AB8041ABE041AC404AB
:1046E0001AC8041ACD041AD0041AD4041AD6041A0B
:1046F000D8041AD9049ADA0429101AD7041AD5044E
:104700001AD2041ACF041ACB041AC6041AC1041A06
:10471000BB041AB5041AAE041AA6041A9E041A960B
:10472000041A8D041A83041A79041A6E041A620496
:104730001A56041A4A041A3D041A2F041A21041A9C
:1047400013041A04041AF4E01AE4041AD4041AC371
:10475000041AB1041AA0041A8D041A7B041A6704FF
:104760001A54041A40041A2B041A17041A01041BC1
:10477000EC0ABC19041AC0041AA9041A92041A7B80
:10478000041A64041A4C041A34041A1B041A03048D
:1047900023EA091AD1041AB7041A9E041A84041AC7
:1047A0006A041A50041A36041A1B041A01041BE680
:1047B00008E419041AB1041A96041A7B041A600456
:1047C0001A44041A29041A0E0423F3071AD8041AE7
:1047D000BD041AA1041A86041A6B041A50041A366E
:1047E000041A1B041119041BE6064C19041AB1041F
:1047F0001A97041A7D041A63041A4A041A30041A18
:1048000017041BFE052819041ACD041AB5041A9DB5
:10481000041A86041A6F041A58041A41041A2B0445
:104820001A15041119041BEA04F419041AC1041A14
:10483000AD041A9A041A86041A74041A61041A50F0
:10484000041A3E041A2D041A1D041A0D0423FD0334
:104850001AEE041AE0041AD2041AC4041AB7041A8D
:10486000AB041A9F041A93041A88041A7E041A745B
:10487000041A6B041A63041A5B041A53041A4C04D6
:104880001A46041A40041A3B041A36041A32041A4F
:104890002F041A2C041A2A041A28049A270429100F
:1048A0001A29041A2B041A2D041A31041A34041A72
:1048B00039041A3D041A43041A49041A50041A57B9
:1048C000041A5F041A67041A70041A79041A83041C
:1048D0001A8E041A99041AA5041AB1041ABE041AED
:1048E000CB041AD9041AE7041AF6041A05E01A15BB
:1048F000041A25041A36041A47041A58041A6B04B9
:104900001A7D041A90041AA3041AB7041ACB041AC5
:10491000E0041AF504230A051A20041A36041A4C76
:10492000041A63041A7A041A92041AA9041AC10414
:104930001AD9041AF204230B061A24041A3D041A85
:1049400056041A70041A8A041AA4041ABE041AD847
:10495000041AF3041B0D07F819041A43041A5E0421
:104960001A79041A94041AAF041ACA041AE5040343
:104970001601082D0102030404100B0607080902A2
:104980000406084D451B085E041A63041A53041AF2
:1049900068041A4F041A56041331321B08A9081A66
:1049A00037081A6C081321091B08C10813DB081B00
:1049B00008D80813AB061B088E0813D80414208DE2
:1049C0002D1B08B104135B2E1408BB311A08CF024B
:0449D000DC01000006
:0400000508000131BD
:00000001FF
